:100000000C9498020C94C0020C94C0020C94C00290
:100010000C94C0020C94C0020C94C0020C94C00258
:100020000C94C0020C94C0020C94C0020C94390AC7
:100030000C94C0020C94C0020C94C0020C94C00238
:100040000C94EF090C94C0020C94C0020C94C002F2
:100050000C94C0020C94C0020C94C0020C94C00218
:100060000C94C0020C94C0020101FF030101F703CC
:100070006C00680000000000240027002A00000037
:100080000000250028002B000500893008023802F6
:1000900049786814000047414D453100050068016A
:1000A0003801000008053810383810000000080436
:1000B0003810387C000000000803BAD67C0000002D
:1000C00000000803BAD67C00000000000804AA570C
:1000D000BBD6000000000804AA57BBD600000000F1
:1000E0000802AA5700000000000008057088B888C0
:1000F000700808387478501810101008083874B850
:100100001038101814080838F4381018102844084B
:10011000083874B810381030500806387478501801
:100120003800000803FF99FF47414D4531000500A5
:10013000380168010000401E0000000000000000BF
:10014000000000000000000000000000100000009F
:10015000000000000F0000000000000C7F80000085
:1001600000000007FF80000000000007FFC0000043
:100170000000000FF0C0000000000007C0400000B9
:100180000000000784400000000000030140000060
:10019000000000078080000000000079C10000001E
:1001A00000000181F200000000000201FC000000DC
:1001B0000000027FFA0000000000018FF2600000E2
:1001C0000000001FF1A000000000001FFC20000044
:1001D0000000003FD3C000000000005FD00000001E
:1001E0000000008FF000000000000107F98000000F
:1001F0000000020FFF80000000000411FF800000DB
:10020000000004207F800000000002101F0000009A
:10021000000001E0060000000000000000000000F7
:10022000000000000000000017534400161378007F
:10023000161314001510200015201000540A03E1B5
:1002400081867F3E186D830F0F0E01838660331801
:100250006DC3198F1803C38E6033186DE330CF1848
:1002600003C39E603630CDE360CF3006C79E7E3E2E
:1002700030CDB360CF300CC6F6603330D9B660CF26
:1002800033CFCCF66061B0DB1E60CF30D86CE6C0F7
:1002900061B0DB1E618F19986CC6C063B19B0E33D1
:1002A0000F0FB078C6FF7E1F1B061E0FF6E8DBCFD0
:1002B000C3B8AEA49B928A827B746E68625C57520C
:1002C0004E4945413E3A3734312E2C2927252321EA
:1002D0000A0A153A49676E6F7265006D560A0A5030
:1002E0004C45415345205455524E204F4646200020
:1002F0004C4F572042415454455259212000030588
:100300003F213F1208120A100A0E1C0E0C1E0C147C
:100310001A14161F161E131E1E1B1E1E1F1E3F2103
:100320003F3A2F3A173D173F213F181F02040A0496
:100330001F0E04040E1F0A1F0A0E0E1F04110E2E9C
:10034000252E2F2A2E262929021F02081F08150EE6
:1003500004040E150E15151B151B040604040C04CD
:100360000000000017000300031F0A1F16371A19A8
:1003700004130A153A000300000E11110E000A04BE
:100380000A040E04003000040404001000180403E2
:100390001F111F121F101D151711151F07041F17FE
:1003A000151D1F151D01011F1F151F17151F000A01
:1003B00000003200040A110A0A0A110A0401150297
:1003C0000E11171E051E1F150A0E110A1F110E1FF2
:1003D00015111F05010E111D1F041F111F110810FB
:1003E0000F1F041B1F10101F061F1E040F0E110EDF
:1003F0001F09060E112E1F051A121509011F011FD4
:10040000101F0F180F1F0C1F1B041B031C031915B3
:1004100013001F11030418111F00020102202020E5
:100420000001020C121E1F120C0C12120C121F0CD7
:100430001A14041E05242A1E1F021C141D1020203D
:100440001D1F0814111F101E041E1E021C0C120C6E
:100450003E0A040C123E1E040214160A020F120E6B
:10046000101E0E100E1E081E120C1226281E322AF6
:1004700026041E21001F00211E040102013F213F0E
:10048000172B152010204C4F4144455200172B16B6
:10049000201314004500680100000A4E6F205344E9
:1004A0002063617264206F720A6E6F204C4F41446A
:1004B00045522E4845580A0A153A45786974001D78
:1004C00020466C617368696E670A20206C6F6164F6
:1004D00065722E2E2E0A0A444F4E27542054555230
:1004E0004E204F4646210000000000230026002930
:1004F00000040404040404040402020202020203CD
:1005000003030303030102040810204080010204D6
:100510000810200102040810200000000800020159
:100520000000030407000000000000000000D818CD
:1005300011241FBECFEFD8E0DEBFCDBF11E0A0E099
:10054000B1E0E8E3F7E302C005900D92A634B107ED
:10055000D9F724E0A6E4B1E001C01D92AD30B207A6
:10056000E1F712E0C8E9D2E004C02197FE010E9441
:10057000881BC739D107C9F70E94AE100C949A1B8B
:100580000C9400004F925F926F927F928F929F9295
:10059000AF92BF92CF92DF92EF92FF920F931F9391
:1005A000CF93DF9300D000D01F92CDB7DEB740913C
:1005B00006045091070460910804709109042FB754
:1005C000F89480917C0190917D01A0917E01B09181
:1005D0007F012FBF481B590B6A0B7B0B80910504D1
:1005E00090E0A0E0B0E0009101041091020420919D
:1005F00003043091040484179507A607B70730F465
:10060000011511052105310509F033C3012B022B1A
:10061000032B09F02CC380919D0381508E3F18F568
:1006200080919C03813021F58091B0038F5F6091B0
:10063000B10387FD09C0082E000C990B70E06F5FB5
:100640007F4F0E94601B682F6093B0038DE894E099
:1006500090930B0480930A0488E480930C048BEA43
:1006600093E00E94C10A80919D0381508E3F70F4F7
:1006700080919B03813009F0A8C380E894E09093B7
:100680000B0480930A0488E480930C0480E00E94A9
:100690006C0F8091AC03882309F4ADC08091C00336
:1006A0008111A9C08091B8039091B903E091BD0375
:1006B000F091BE03EE0FFF1FE80FF91F4591549113
:1006C0004115510501F52091BC03222331F0109210
:1006D000BE031092BD03FC0114C01092AC038091C4
:1006E000AB03882341F080E00E946C0FE091BD03D2
:1006F000F091BE032FC060E08BEA93E00E947C0A79
:100700007AC0459154919A0136952795369527954B
:1007100040FF51C0CA0116E0969587951A95E1F7FA
:100720008F71952F96959695969590512F702230B2
:1007300071F1F8F4211117C08B3008F08AE0809332
:10074000C103E091BD03F091BE033196F093BE0367
:10075000E093BD03EE0FFF1F8091B8039091B903A2
:10076000E80FF91FCECF213061F760E00E94AD0F96
:10077000E8CF2330B1F0243021F72091AF03829FDE
:10078000802D11248093C8039093C903DACF209160
:10079000AF03829F802D11248093C4039093C503DF
:1007A000D0CF2091AF03829F802D11248093C60368
:1007B0009093C703C6CF2F732093BF038091AF03DD
:1007C000859F802D11248093C0031092D003109236
:1007D000CF031092CE0381E08093C2038093770110
:1007E0001092C3038091BD039091BE030196909334
:1007F000BE038093BD038091C203882309F4F3C034
:100800008091C003811106C060E08BEA93E00E94F2
:100810007C0AE9C081508093C0038091D00381118C
:1008200048C02091CE033091CF032F5F3F4FC901C5
:10083000880F991FE091CA03F091CB03E80FF91FCD
:1008400065917491862F87708093D103AB01E3E0AB
:1008500056954795EA95E1F7CA0196958795972FA2
:10086000969596959093D2038F739091AF03899F3D
:10087000802D11248093D003417040937B013093ED
:10088000CF032093CE038091CC0390E02817390743
:1008900080F02091CD03222339F0821B910990939F
:1008A000CF038093CE0305C060E08BEA93E00E9403
:1008B0007C0A8091D00381508093D0038091C30340
:1008C00021E0280F2093C3034091BF033091D2034E
:1008D000340F8091B703380F3093AD036091C60396
:1008E000662371F070E0822F022E000C990B0E949B
:1008F000601B8091C703869F300D11243093AD0398
:100900008091AD0390E0849664E270E00E94601BE9
:100910008093AD033091C1033093AE036091C40363
:10092000662381F0062E000C770B822F022E000C1E
:10093000990B0E94601B8091C503869F300D112486
:100940003093AE036091C8036623A1F0822F220F7B
:10095000990B70E00E94601BCB0162E070E00E9486
:10096000601B2091C9039091AE03289F900D112424
:100970009093AE038091AE034F3341F08A300CF078
:1009800089E087FD80E08093AE0302C01092AE0341
:10099000F894E091AD03F0E0E455FD4FE491E0936D
:1009A0007A013091AE032091D303320390011124D8
:1009B0004091D1034203C001439F900D1124009048
:1009C000B00302C0880F991F0A94E2F797FF02C094
:1009D00081589F4F880F892F881F990B8093790129
:1009E00080937801789480910C04882309F496C050
:1009F0008C3020F49CE0C92EC81A01C0C12CDD2423
:100A0000D394D092DC031092F4031092F503E0909B
:100A1000D9033DE2B32E1B2D1E191C0D03E00E0D54
:100A20002EE4412F63E084ED93E00E94710C4CEFC3
:100A3000F42EFE0C1D5FEF2C01E023E0412F60E55A
:100A400084ED93E00E94970D02E023E0412F63E0E4
:100A500084ED93E00E94970DD092F403D092F503B9
:100A60000091D90313E0100FEB2CE01AEC0C23E0FB
:100A70004E2D622F84ED93E02D830E94190C2D8161
:100A80002F5F2135A9F71E0DFF24FA94F10E23E004
:100A90004F2D622F84ED93E02D830E94190C2D8140
:100AA0002F5F2135A9F7035033E0E30E202F4E2DA1
:100AB00060E084ED93E00E94740D202F4E2D63E5DD
:100AC00084ED93E00E94740D41E06E2D83E00E945E
:100AD000E80F42E06E2D80E50E94E80F145044E0DC
:100AE000612F80E50E94E80F48E0612F83E00E94BB
:100AF000E80F84E08093DD038091D903C81A8C2D20
:100B0000815D8093DE0380910A0490910B040E9422
:100B1000100F80910C04815080930C048091A203EB
:100B20009091A303892B09F484C011E01093F4037E
:100B30001092F5039091D80385E5891B8093DD031E
:100B40001092DE0380919F03813009F455C030F08C
:100B500090919E03853008F067C062C060E08BEA28
:100B600093E00E947C0A1092AC031093DC03EEEF3A
:100B7000F2E0E491EF5FE093D803EFEFF2E0E4916D
:100B8000EF5FE093D90380E093E09093F3038093C9
:100B9000F2031092A3031092A2031092DA0318EA50
:100BA0000E94C2028823E1F380EF92E00E94100FBE
:100BB0004091A0035091A10360E070E02AE084ED31
:100BC00093E00E943C088BED92E00E94100F412FB1
:100BD00042954F7050E060E070E02AE084ED93E0D1
:100BE0000E943C0880ED92E00E94100F80919B03D0
:100BF000813009F0F0C01DC08091F7039091F80397
:100C0000A091F903B091FA038F709927AA27BB2707
:100C10000897A105B10510F487E009C088E707C06F
:100C2000992339F08B5F03C0992319F08FE20E945A
:100C300066100E94D00E8091DA03811104C084ED09
:100C400093E00E94080C0E94900960930104709345
:100C5000020480930304909304042091FD033091D7
:100C6000FE03621B730B7093FC036093FB0380E035
:100C7000CCC02FB7F89480917C0190917D01A09118
:100C80007E01B0917F012FBF20910504820F911D3D
:100C9000A11DB11D8093060490930704A09308043E
:100CA000B09309048091F7039091F803A091F903A0
:100CB000B091FA030196A11DB11D8093F7039093A3
:100CC000F803A093F903B093FA0310920104109271
:100CD000020410920304109204040E94900960938D
:100CE000FD037093FE038093FF03909300048091B3
:100CF0008703909188032FE0289F8001299F100D82
:100D0000112485E10E947909800F911F24E09695B6
:100D100087952A95E1F79093880380938703209124
:100D20008603222309F44BC060918A03262F30E00A
:100D300040E050E029833A834B835C83C0908B036F
:100D4000D12CE12CF12C40918E0350918F034A015C
:100D5000A12CB12C20918C0330918D032901612CA1
:100D6000712C8217930728F09C014817590708F443
:100D70009A01C901A0E0B0E09C01AD012419350938
:100D80004609570969817A818B819C816C197D099B
:100D90008E099F090E94441BA5019401241935095D
:100DA000460957090E94B719C20ED31EE41EF51E4C
:100DB000C09289036C2D70E085E00E941A090E94A0
:100DC0005D0E0E94711081E020C0893209F05ECC76
:100DD0000E94410F5BCC115009F0E2CE60E070E060
:100DE00085E00E941A0983B7817F846083BF83B73F
:100DF000816083BF83B7816083BF889583B78E7F0F
:100E000083BF83B78E7F83BFCBCE0F900F900F90A1
:100E10000F900F90DF91CF911F910F91FF90EF9066
:100E2000DF90CF90BF90AF909F908F907F906F900A
:100E30005F904F900895CF92DF92EF92FF920F93C1
:100E40001F93CF93DF93EC0181E08093DC0310923A
:100E5000DB031092DA0310929E038093F4038093D5
:100E6000F5031CE00E94C2028823E1F3FE01849195
:100E7000882319F00091D90301C000E02CE332E08F
:100E800040E060E084ED93E00E94C60A4CE0400F31
:100E900026E331E060E084ED93E00E94C60A109200
:100EA000DD031093DE03CE010E94100F8091D80362
:100EB000982F990F890F81958D5A8093DD0380912A
:100EC000D903982F990F890F8195835D8093DE0355
:100ED0008091F70384FF03C088E392E002C084E3BB
:100EE00092E00E94310F8091D803982F990F890FBB
:100EF00081958D5A8093DD038091DE038F5F80930F
:100F0000DE038091B003882319F080E392E002C0F1
:100F10008CE292E00E94310F9091D803892F880FC4
:100F2000980F91959D5A9093DD038091DE038F5F1A
:100F30008093DE0388E292E00E94310F80919C034F
:100F40008130B1F48091B0038F5F6091B10387FD70
:100F500009C0082E000C990B70E06F5F7F4F0E9454
:100F6000601B682F6093B0038BEA93E00E94C10A74
:100F700080919B038130A9F08091F603482F50E0C7
:100F800060E070E0C090F703D090F803E090F903C0
:100F9000F090FA03C416D506E606F706F8F08F3F80
:100FA000E9F08FEF8093F60360E08BEA93E00E9414
:100FB0007C0A1092AC0340E06EE271E08BEA93E0B1
:100FC0000E948D0A81E080939E03DF91CF911F9153
:100FD0000F91FF90EF90DF90CF90089580919D0347
:100FE000813009F03FCF0E94410F3CCFCF92DF927A
:100FF000EF92FF920F931F93CF93DF936C017A01CF
:101000008B01C0E0D0E0CE15DF0589F0D8016D91ED
:101010008D01D601ED91FC910190F081E02DC6018A
:101020000995892B11F47E0102C02196ECCFC701EE
:10103000DF91CF911F910F91FF90EF90DF90CF90B4
:101040000895089580E090E008950E948E1B611538
:10105000710579F0FB0101900020E9F73197AF01AC
:10106000461B570BDC01ED91FC910280F381E02DD2
:10107000099480E090E008954F925F926F927F9282
:10108000EF92FF920F931F93CF93DF93CDB7DEB70D
:10109000A1970FB6F894DEBF0FBECDBF7C01FA0159
:1010A000CB0119A2223008F42AE08E010F5D1F4FF8
:1010B000422E512C612C712CBF01A30192010E9480
:1010C000E919F901CA01015011096A3014F4605D8F
:1010D00001C0695CD8016C93232B242B252B61F76D
:1010E000B801C7010E942708A1960FB6F894DEBF89
:1010F0000FBECDBFDF91CF911F910F91FF90EF9069
:101100007F906F905F904F900895833081F028F426
:10111000813099F08230A1F008958730A9F08830AD
:10112000B9F08430D1F4809180008F7D03C080912C
:1011300080008F7780938000089584B58F7702C0F8
:1011400084B58F7D84BD08958091B0008F7703C0F2
:101150008091B0008F7D8093B00008951F93CF934E
:10116000DF93282F30E0F901E75EFA4F8491F9010F
:10117000EB5FFA4FD491F901EF50FB4FC491CC23B0
:10118000C9F0162F81110E948508EC2FF0E0EE0FB8
:10119000FF1FE258FF4FA591B4918FB7F89411113A
:1011A00005C09C91ED2FE095E92302C0EC91ED2B59
:1011B000EC938FBFDF91CF911F910895CF93DF9371
:1011C00090E0FC01EB5FFA4F2491FC01EF50FB4FE4
:1011D0008491882361F190E0880F991FFC01EC58FD
:1011E000FF4FC591D491FC01E258FF4FA591B491F6
:1011F000611109C09FB7F894888120958223888364
:10120000EC912E230BC0623061F49FB7F8943881C3
:10121000822F809583238883EC912E2B2C939FBF64
:1012200006C08FB7F894E8812E2B28838FBFDF91FB
:10123000CF9108951F93CF93DF93182FEB0161E0B7
:101240000E94DE08209711F460E004C0CF3FD10572
:1012500039F461E0812FDF91CF911F910C94AE089A
:10126000E12FF0E0E75EFA4FE491E330F9F048F463
:10127000E130B9F0E230A1F584B5806284BDC8BD2B
:1012800034C0E730E9F0E83019F1E43049F58091F5
:101290008000806280938000D0938B00C0938A008E
:1012A00024C084B5806884BDC7BD1FC08091800004
:1012B000806880938000D0938900C093880015C017
:1012C0008091B00080688093B000C093B3000DC0DF
:1012D0008091B00080628093B000C093B40005C0DC
:1012E000C038D1050CF0B5CFAFCFDF91CF911F91B2
:1012F00008958E3008F08E508770806480937C0053
:1013000080917A00806480937A0080917A0086FDD3
:10131000FCCF809178002091790090E0922B089585
:101320003FB7F8948091820190918301A09184014C
:10133000B091850126B5A89B05C02F3F19F00196F5
:10134000A11DB11D3FBFBA2FA92F982F8827820F4B
:10135000911DA11DB11DBC01CD0142E0660F771F9B
:10136000881F991F4A95D1F708958F929F92AF9247
:10137000BF92CF92DF92EF92FF926B017C010E94AD
:1013800090094B015C01C114D104E104F104F1F0B6
:101390000E949009DC01CB0188199909AA09BB09AF
:1013A000883E9340A105B10570F321E0C21AD1082F
:1013B000E108F10888EE880E83E0981EA11CB11C9C
:1013C000C114D104E104F10419F7DDCFFF90EF90CF
:1013D000DF90CF90BF90AF909F908F9008951F9215
:1013E0000F920FB60F9211242F933F938F939F93D9
:1013F000AF93BF9380917C0190917D01A0917E017C
:10140000B0917F013091810123E0230F2D3720F42B
:101410000196A11DB11D05C026E8230F0296A11D4E
:10142000B11D2093810180937C0190937D01A09355
:101430007E01B0937F018091820190918301A09100
:101440008401B09185010196A11DB11D8093820197
:1014500090938301A0938401B0938501BF91AF91D4
:101460009F918F913F912F910F900FBE0F901F90E2
:1014700018951F920F920FB60F9211242F936F930E
:101480007F938F939F9360917901662359F18091A7
:1014900080018F5F8093800190917A01891710F10C
:1014A0002091770181E02827209377011092800115
:1014B00080917B01882369F08091000193E4899FEA
:1014C000802D1124895B809300010E94541B90930E
:1014D0007801222329F0809178018093B40002C022
:1014E00080E0FBCF9F918F917F916F912F910F9013
:1014F0000FBE0F901F901895FC0161110DC0178A47
:10150000158A14A213A2108E1092780110927901FC
:10151000109277011092B4000895EF92FF920F930A
:101520001F93CF93DF931F92CDB7DEB77C018B0162
:10153000411105C060E049830E947C0A498150E066
:10154000FA01EE0FFF1FEE0DFF1D16870587DA016A
:101550001996AA0FBB1FAE0DBF1D1D921C92F7015D
:10156000E40FF51F81E0818389E0868B118E138E55
:10157000158E0F90DF91CF911F910F91FF90EF90FB
:10158000089540E064E974E00C948D0A4F925F92F4
:101590006F927F928F929F92AF92BF92CF92DF9283
:1015A000EF92FF920F931F93CF93DF93F901C490B3
:1015B00031965491EC0108A164350CF018C10C2C43
:1015C000000CDD08A62F062E000CBB0B7D01EC0CD9
:1015D000FD1C1E141F040CF00AC140330CF007C19F
:1015E000A52E842E042E000C9908F401E50FF11DA0
:1015F00057FDFA951E161F060CF0F9C02E5F3F4FDF
:10160000E6012796D7FD279673E0D595C7957A957D
:10161000E1F747FF0AC0A52EA40EC89DA001C99DF1
:10162000500D1124241B350B40E0EA2D0A2C000C30
:10163000FF0BE40FF11D47FDFA95F1971CF050E305
:10164000A52EA41A67FD60E0F701E535F10514F059
:10165000E4E5F0E07E2FFC01D484D426862F062E0C
:10166000000C990BFC01EA1BFB0BDF017F01F7E08B
:10167000EF22FF24E0E8F0E002C0F595E795EA9458
:10168000E2F71E2FB7FD179653E0B595A7955A952B
:10169000E1F72A0F3B1FE42FE77051E001C0550F1F
:1016A000EA95EAF7459545954595B4E54B02800DD9
:1016B000911D11248A579E4FC12C0A2C000CBB0887
:1016C000992493942E015524EC2DF0E0EA15FB05A6
:1016D0000CF08DC0F90144910130E1F47C01A12F9F
:1016E000862E881AB82DBE0DB71708F077C0B42F14
:1016F000BA2321F0E701B881B52BB883B0E0B595E6
:10170000A795109719F431964491A0E8DFEFED1AF0
:10171000FD0AE8CF01111FC0752E70947C01A12F26
:10172000F901862E881AB82DBE0DB71708F056C0DD
:10173000B42FBA2321F0E701B881B721B883B0E014
:10174000B595A795109719F431964491A0E8DFEF6D
:10175000ED1AFD0AE8CF033031F07C01A12FF90129
:10176000862E881A37C0752E7094862E7C01A12F84
:10177000F9018716D8F4B42FBA2359F0E701B881DC
:10178000682C6D2460FE02C0B52B02C0B721E701B2
:10179000B883B0E0B595A795109719F431964491A8
:1017A000A0E88394DFEFED1AFD0AE3CFD92416C039
:1017B000B42FBA2321F0E701B881B527B883B0E090
:1017C000B595A795109719F431964491A0E8DFEFED
:1017D000ED1AFD0AB82DBE0DB71750F3550F19F4C9
:1017E0008C5A9F4F51E0C394240D351D6DCFDF916E
:1017F000CF911F910F91FF90EF90DF90CF90BF900E
:10180000AF909F908F907F906F905F904F900895D2
:1018100028EF31E0E6E8F1E0DF01A9011D92415037
:101820005040E1F7DC0119961C9219971A961C9208
:101830000895FC01643508F053C0403308F050C0EF
:1018400090A1742F759575957595262F062E000C11
:10185000330B542F57709230A1F4F901EA57FE4F21
:1018600084E57802E00DF11D1124808190E0052EC1
:1018700002C0959587950A94E2F78095982F91700C
:101880000AC0933041F484858170462740954170A9
:10189000841303C014C0911112C084E57802200D96
:1018A000311D1124F901EA57FE4F81E090E001C09B
:1018B000880F5A95EAF780959081892310C084E5B6
:1018C0007802200D311D1124F901EA57FE4F81E005
:1018D00090E001C0880F5A95EAF79081892B8083A8
:1018E0000895BF92CF92DF92EF92FF920F931F93D2
:1018F000CF93DF931F92CDB7DEB77C01D62EC42ED7
:10190000002E000C110B040F111D47FD1A954C2DD4
:101910000C2C000C550B401751077CF4B12CB2165F
:1019200054F46B2D6D0D4C2DC70129830E94190CA9
:10193000B3942981F4CFC394EACF0F90DF91CF9174
:101940001F910F91FF90EF90DF90CF90BF9008957F
:101950006F927F928F929F92AF92BF92CF92DF92BF
:10196000EF92FF920F931F93CF93DF93EC016A30B6
:1019700019F42D819885A1C06D3009F4A4C0188593
:10198000BA84D98488A083E58D150CF47FC08FE2DA
:101990008B150CF47BC08C8190E00197189F90010F
:1019A000199F300D1124C9018D0D911DD7FC9A95F9
:1019B000181619060CF06AC08D81819FC001112490
:1019C0008B0D911DB7FC9A95181619060CF05EC088
:1019D0009D2CCD2CE62EF12CEC2DED190E2E000CAD
:1019E000FF0B8C8190E0E817F9070CF04EC00197CF
:1019F000E817F90779F0E89E9001E99E300DF89E0E
:101A0000300D1124E20FF31F8E8D9F8DE80FF91F0B
:101A1000749001C0712C6B2CAB2C2A2D2B19022E2B
:101A2000000C330B8D8190E0281739075CF570FEB0
:101A300010C0113031F44A2D6C2DCE010E94190CCA
:101A40001DC0012F212F462D692DCE010E94710C42
:101A500015C089A198A1891789F088A3113031F4A4
:101A60004A2D6C2DCE010E94190C07C0012F212F89
:101A7000462D692DCE010E94710C88A27694A39404
:101A8000610ECBCFC394910EA7CF88A228853C814D
:101A90008985329F800D112489879F81992399F030
:101AA000082E000C990B44E550E0239F4019510982
:101AB0001124481759073CF49D818A85299F800D80
:101AC00011248A87198681E090E0DF91CF911F91E0
:101AD0000F91FF90EF90DF90CF90BF90AF909F90CD
:101AE0008F907F906F900895DF92EF92FF920F9307
:101AF0001F93CF93DF931F92CDB7DEB78C01D62E05
:101B0000F42EE12CE21654F44E2D4F0D6D2DC8012C
:101B100029830E94190CE3942981F4CF0F90DF915F
:101B2000CF911F910F91FF90EF90DF9008958F92CA
:101B30009F92AF92BF92CF92DF92EF92FF920F935C
:101B40001F93CF93DF936C01B62EA42EC22F11E00A
:101B5000121BF22EF194FF0CD1E0802F8170882EA1
:101B6000992493949E0C02708FEF8D0F8C17C4F5FF
:101B700017FD04C0C150F394F3941F0D8D2F880FEF
:101B80008F5F180F882099F02C2F220F290D4A2DD6
:101B90004C1B6D2F6B0DC6010E94740D23E02E0DA2
:101BA0004A2D4D1B6C2F6B0DC6010E94740D002336
:101BB00099F02C2F220F290D4A2D4C1B6B2D6D1BDC
:101BC000C6010E94740D23E02E0D4A2D4D1B6B2D76
:101BD0006C1BC6010E94740DDF5FE394E394C4CFD5
:101BE000DF91CF911F910F91FF90EF90DF90CF90F9
:101BF000BF90AF909F908F9008951092670186E2FA
:101C000090E0909362018093610184E290E0909370
:101C100064018093630181E090E09093660180937A
:101C2000650122E030E03093600120935F018FEF87
:101C30009FEF909369018093680110926B0110925D
:101C40006A0110924E0190934D0180934C0148E23D
:101C500050E050934701409346013093490120934F
:101C6000480110924B0110924A0110925501909335
:101C70005201809351019093500180934F01109233
:101C800054011092530110925E0190935B01809376
:101C90005A0180E290E09093570180935601109290
:101CA0005D0110925C01109259011092580183E07D
:101CB00080936E0110926D010895CF92DF92EF92A2
:101CC000FF920F931F93CF93DF93C0E9D3E007E90F
:101CD00013E0FF24FA9497E0E92EE00E62E0888199
:101CE0000E94DE08288130E0F901E75EFA4F849116
:101CF000F901EB5FFA4FC490F901EF50FB4FD4901C
:101D0000DD2071F081110E948508ED2DF0E0EE0FCD
:101D1000FF1FE951FB4FA591B491EC91EC21B1F477
:101D2000F80180818F5F808360E088810E94DE08F7
:101D300021960F5F1F4FE012D1CFDF91CF911F91FE
:101D40000F91FF90EF90DF90CF900895F801808180
:101D5000882371F3F8018F3F11F41082E5CFF082F0
:101D6000E3CFCF93C82FF89460E08091E3030E9403
:101D7000AE088091E40318161CF460E00E94AE08DF
:101D8000CEBD00000DB407FEFDCF8EB58091E403FB
:101D900018161CF461E00E94AE087894CF91089563
:101DA0000F931F93CF938091E0038F5F8093E003A5
:101DB00006E811E0C0E08C2F80640E94B10E80E83C
:101DC0000E94B10E61E08091E3030E94AE08809111
:101DD000E40318161CF460E00E94AE0880E090E076
:101DE000F801E80FF91F20812EBD00000DB407FE99
:101DF000FDCF2EB501968435910591F78091E403CE
:101E000018161CF461E00E94AE08CF5F0C5A1F4FF9
:101E1000C63089F680E4CF911F910F910C94B10EDA
:101E20000F931F93CF93DF938C01C0E0D0E0F801B4
:101E3000EC0FFD1F6491662371F0E091D403F091E3
:101E4000D5030190F081E02D84ED93E00995892B75
:101E500011F02196ECCFCE01DF91CF911F910F9120
:101E60000895CF93DF930E94100FEC016EE171E0B3
:101E700084ED93E00E9427088C0F9D1FDF91CF9186
:101E8000089584ED93E00E94080C8FEB94E00E948B
:101E9000100F0E94D00E8CB583608CBD8DB58E7FE7
:101EA0008DBD8FE391E0EEEFFFE309951092DA0329
:101EB0008AE994E00E94310F0E94D00E0E945D0ECC
:101EC00080919B03813039F062E370E080E090E024
:101ED0000E94B509F3CF0895CF93DF93482F50E0C8
:101EE000EA01CA57DC4F9DA19923A1F19EA191114E
:101EF00031C09EA5FA01EE0FFF1FE357FC4F35A13D
:101F000026A1E32FF22FE90FF11DE90FF11D259115
:101F100034912F3F9FEF390711F41DA21BC039AB3D
:101F2000440F551FFA01E057FC4F3327220F331F90
:101F300005A0F6A1E02DE20FF31F659174918111C8
:101F400005C040E08BEA93E00E948D0A29968DA19E
:101F50008F5F8DA3DF91CF91089570E0DB01AA0F11
:101F6000BB1FAA57BC4FD4962C91D497D5969C9161
:101F7000D597E22FF92FE80FF11DE80FF11D2591FC
:101F800034915F9696963C932E939597F90185919F
:101F900094919091AF03989F802D11246A577C4FA4
:101FA000FB01B19685A3F901A591B4914B2F50E0A7
:101FB000E82FF0E04E175F0720F4F90125913491E6
:101FC000832FFB01B296899F802D112485A308954C
:101FD000AF92BF92CF92DF92EF92FF920F931F9337
:101FE000CF93DF93182F062FC1E0D3E08AEFD82ECE
:101FF0009EEFE92E842F8470C82E842F8270B82E15
:10200000842F8870A82E4170F42E8C2F880F8F5F3C
:10201000E80ECC2081F04D2F400F6C2F610F84ED26
:1020200093E00E94190C4C2F400F6D2F610F84ED2F
:1020300093E00E94190CBB2081F0402F4D1B6C2FA8
:10204000610F84ED93E00E94190C402F4C1B6D2F03
:10205000610F84ED93E00E94190CAA2081F04C2FAF
:10206000400F612F6D1B84ED93E00E94190C4D2FE2
:10207000400F612F6C1B84ED93E00E94190CFF2030
:1020800081F0402F4C1B612F6D1B84ED93E00E946B
:10209000190C402F4D1B612F6C1B84ED93E00E94A7
:1020A000190CCD1744F4E7FC04C0D150D394D39459
:1020B000ED0CCF5FAACFDF91CF911F910F91FF90D1
:1020C000EF90DF90CF90BF90AF900895E091D40350
:1020D000F091D5030190F081E02D682F84ED93E01D
:1020E00009948091A2039091A303892BB1F180916F
:1020F000AA038F7169F584E10E947909BC01990FE7
:10210000880B990B0E944B1A26EE3FE34EEC50E4ED
:102110000E94AF1A0E941A1A9B017093A103609348
:10212000A003672B91F084E080939F03E2EAF3E041
:1021300080E0419151912417350718F480939F0353
:1021400008958F5F8430A9F703C08FEF80939F03BA
:102150008091AA038F5F8093AA030895CF93DF93A2
:10216000CDB7DEB728970FB6F894DEBF0FBECDBF50
:10217000789484B5826084BD84B5816084BD85B562
:10218000826085BD85B5816085BD80916E0081606E
:1021900080936E0010928100809181008260809314
:1021A0008100809181008160809381008091800016
:1021B0008160809380008091B10084608093B10041
:1021C0008091B00081608093B00080917A0084603B
:1021D00080937A0080917A00826080937A00809167
:1021E0007A00816080937A0080917A008068809381
:1021F0007A001092C10080916C018F3F11F410920F
:102200006C0182E38093050481E090E0A0E0B0E0FF
:102210008093010490930204A0930304B0930404F8
:102220008FEF8093F603E0E8F7E7259134912130B2
:10223000304C09F049C0E6E9F7E7E491E093DF03A9
:10224000E7E9F7E7E491E0938A03E8E9F7E7E49147
:10225000E0938B03E9E9F7E78591949190938D03DF
:1022600080938C03EBE9F7E78591949190938F032A
:1022700080938E0387E08093B103EEE9F7E7E49162
:10228000E093B003EFE9F7E7E491E093F603E0EAC7
:10229000F7E7859194919093A3038093A203E2EAD8
:1022A000F7E7859194919093A5038093A403E4EAC2
:1022B000F7E7859194919093A7038093A603E6EAAC
:1022C000F7E7859194912CC09CE39093DF031092E3
:1022D0008A0380938B0380E293E090938D03809335
:1022E0008C0384ED93E090938F0380938E0387E0BB
:1022F0008093B1038093B0038CEA9DE09093A30395
:102300008093A2038EED9DE09093A5038093A40398
:1023100084E79EE09093A7038093A6038CE39FE05D
:102320009093A9038093A80311E0109386036FEFA5
:1023300070E085E00E941A0988E08093900389E0AC
:102340008093910387E08093920386E080939303C8
:1023500004E00093940382E08093950381E18093ED
:1023600096030E945D0E8CE39FE09093A1038093FF
:10237000A00300939F031093AA038BE08093E203D2
:102380008DE08093E10380E18093E3038EE080930E
:10239000E5038FE08093E4031093DC031093F403D0
:1023A0001092F5031093DB03EEEFF2E0E491EF5FA0
:1023B000E093D803EFEFF2E0E491EF5FE093D9030D
:1023C00080E093E09093F3038093F2031FB7F894B7
:1023D00080916F01811127C0EBEFF4E08491EFE071
:1023E000F5E09491E82FF0E0EE0FFF1FEC58FF4F5F
:1023F000A591B491EC91E92321F461E08AE00E9477
:10240000AE0861E08AE00E94DE088CB580618CBD78
:102410008CB580648CBD61E08DE00E94DE0861E0D7
:102420008BE00E94DE0880916F018F5F80936F01C7
:102430001FBF8CB58F7D8CBD8CB58C7F81608CBDB2
:102440008DB581608DBD8CB58C608CBD61E0809157
:10245000E2030E94DE0861E08091E1030E94DE0851
:1024600061E08091E3030E94DE088091E503181685
:102470001CF461E00E94DE088091E40318161CF44D
:1024800061E00E94DE088091E503181674F460E0B4
:102490000E94AE086AE070E080E090E00E94B5091A
:1024A00061E08091E5030E94AE088091E103082E6F
:1024B000000C990BFC01EF50FB4FE491F0E0EE0FA4
:1024C000FF1FE258FF4F259134913093E903209389
:1024D000E803FC01EB5FFA4FE491E093EF03809196
:1024E000E203082E000C990BFC01EF50FB4FE49126
:1024F000F0E0EE0FFF1FE258FF4F2591349130932B
:10250000E7032093E603FC01EB5FFA4FE491E093CD
:10251000EE038091E403082E000C990BFC01EF50B0
:10252000FB4FE491F0E0EE0FFF1FE258FF4F2591C3
:1025300034913093EB032093EA03FC01EB5FFA4FF5
:10254000E491E093F0038091E303082E000C990BD3
:10255000FC01EF50FB4FE491F0E0EE0FFF1FE2585B
:10256000FF4F259134913093ED032093EC03FC0150
:10257000EB5FFA4FE491E093F10381E20E94B10E28
:1025800084E10E94B10E8091DF0387FF03C08FE7D3
:102590008093DF038091DF0380680E94B10E80E2A8
:1025A0000E94B10E8CE00E94B10E0E94D00E81E01C
:1025B0008093AF0384E08093D30380E790E090930F
:1025C000BB038093BA0360E080E00E94AD0F61E03E
:1025D00070E083E00E941A098091B100887F8160D9
:1025E0008093B100F89410928000109281001092B4
:1025F00085001092840088E191E090938900809397
:1026000088008091810088608093810080918100A2
:1026100081608093810080916F00826080936F0061
:1026200078940E94711080919C03813019F410926B
:10263000B0030BC080919F038823C9F340E068E892
:1026400070E08BEA93E00E948D0AC090A003D090C6
:10265000A103C094D094E12CF12C0E9490094B016D
:102660005C010E949009A501940120953095409548
:10267000509560957095809590950E94441B9B01A4
:10268000AC01C701B6010E94441B4B015C01809163
:102690008703909188036C01E12CF12C0E94900932
:1026A000C60ED71EE81EF91EC701B601680D791DBA
:1026B0008A1D9B1D611571058105910511F00E9410
:1026C00098198091F603882321F086E990E00E9412
:1026D0001B0710929E030E94FD0D78E0C72ED12C9F
:1026E0006CE2262E312C0E94C202882309F4B6C463
:1026F00080916E018111A3C084ED93E00E94080CCB
:1027000048EF51E06FEF7FEF86E891E00E94931B66
:102710001092F40381E08093F5038AE18093DD0356
:102720008FE08093DE0365E171E084ED93E00E9429
:1027300027086EE171E084ED93E00E94270884E1B0
:102740008093DD0389E18093DE0361E271E084ED33
:1027500093E00E94270880916D018A3018F469E2A5
:1027600071E004C0843630F46AE271E084ED93E0F5
:102770000E94270840916D0150E060E070E02AE07F
:1027800084ED93E00E943C086EE171E084ED93E0FB
:102790000E94270880916D018823B1F090916C010F
:1027A000891312C084E18093DD0383E28093DE030A
:1027B0006DE271E084ED93E00E9427086EE171E024
:1027C00084ED93E00E94270801E00093F403109247
:1027D000F50360916C0180E090E00E94A9191091CE
:1027E000DA030093DA038090F7039090F8035CE338
:1027F000850E911C092C000CAA08BB088091F703D8
:102800009091F803A091F903B091FA038815990506
:10281000AA05BB0528F40E94C2028823E1F3EECF8B
:102820001093DA030E94FD0D8091F603882321F0B6
:1028300088E291E00E941B0710929E030FC484ED72
:1028400093E00E94080C69E371E084ED93E00E943C
:10285000270840916E0150E060E070E02AE084EDCE
:1028600093E00E943C0883E28093DD0340916D0178
:1028700050E060E070E02AE084ED93E00E943C08C4
:102880008CE38093DD036BE371E084ED93E00E94C1
:10289000270840916C0150E060E070E02AE084ED90
:1028A00093E00E943C0810E023E231E04CE2612F0B
:1028B00084ED93E00E94C60A185F1036A9F7809154
:1028C0006A0190916B01892B11F56FEF7FEF709387
:1028D00069016093680110927401109273018091F4
:1028E000970381508E3F08F4C1C3809199038150B2
:1028F0008E3F08F4C9C38091980381508E3F08F43D
:10290000D2C380919A0381508E3F08F4D5C3409181
:1029100068015091690157FD22C0209161013091F9
:1029200062018091650190916601820F931F97FD6E
:1029300005C0909362018093610104C0109262010E
:102940001092610180916101909162018D34910535
:1029500034F08CE490E09093620180936101609187
:102960006A0170916B016115710509F440C02091F5
:102970005F01309160018091630190916401821B3D
:10298000930B9093640180936301009729F0FB01FE
:10299000E81BF90B709739F4319521953109309383
:1029A000600120935F012091730130917401820FC7
:1029B000931F8597C4F084E290E0821B930B909361
:1029C00064018093630180915F0190916001919512
:1029D000819591099093600180935F0110926B0142
:1029E00010926A0104C0672B21F082E006C057FDF7
:1029F00012C04330510521F484E0809372010DC070
:102A00008091F70380FD09C0809172018F5F8093F0
:102A10007201843010F010927201809172017AE09C
:102A2000879FC0011124FC01EF50FF4F5F012491EB
:102A3000A601421B51099A015093760140937501FA
:102A4000FC01EE50FF4FE491C6018E1B910990935B
:102A50007401809373014091670160906301680E77
:102A600050906101520E411108C09501462D652D0F
:102A700084ED93E00E94C60A81C0F501049131966D
:102A80004490802E912CC40107969C0153E035950B
:102A900027955A95E1F73A83298310E0242D30E0F9
:102AA0003E832D830150812F012E000C990B881538
:102AB00099050CF063C0812F17FF02C087E0810FDA
:102AC000E82EE594E594E594812F877887FF03C08D
:102AD0008150886F8F5F20E830E002C035952795E0
:102AE0008A95E2F73C832B83712C0E2C000CFF0897
:102AF00032E0E30EF11C502F511B272D072C000C48
:102B0000330B6D817E8126173707B4F569817A8191
:102B1000269FC001279F900D369F900D1124F7012D
:102B2000E80FF91FEA0DFB1DE491F0E02B813C81D9
:102B3000E223F323EF2BF1F0442361F0242F2370E1
:102B400040FF02C0652F01C0612F41FF07C0442D27
:102B5000471905C0472D612F20E001C0472D650DA5
:102B6000460D84ED93E02F8358870E94190C2F8126
:102B7000422F58857394C1CF1F5F95CF80915E011E
:102B8000811118C080915C0190915D01892B91F4B5
:102B90000091F7031091F8030E9435190C591F4F4B
:102BA00064E670E00E94601B080F191F10935D011E
:102BB00000935C0180915E01811140C080915C01B5
:102BC00090915D01092E000CAA0BBB0B4091F703FD
:102BD0005091F8036091F9037091FA03481759076F
:102BE0006A077B0758F181E080935E018091610163
:102BF000909162018B9754F00E9435196FE070E05C
:102C00000E94601B9C01265F3F4F0AC00E9435193D
:102C10006FE070E00E94601B2AE430E0281B390B53
:102C200030935B0120935A018091F7039091F80350
:102C300088539F4F909359018093580180915E0172
:102C4000882309F45DC00091560110915701E0906E
:102C50005A01F0905B012AEE30E0402F6E2D84ED9A
:102C600093E00E94C60A40917301509174016091F3
:102C700075017091760180916301909164012091BA
:102C8000610130916201620F731F2C0D3D1DE21630
:102C9000F3069CF4E5E0EE0EF11C6E157F056CF476
:102CA000480F591F8C0D9D1D0817190734F40B5F31
:102CB0001F4F401751070CF40AC2809158019091A0
:102CC0005901092E000CAA0BBB0B4091F703509140
:102CD000F8036091F9037091FA03481759076A07DE
:102CE0007B0770F010925E0110925B0110925A0106
:102CF00010925D0110925C011092590110925801DE
:102D000080915501811118C0809153019091540117
:102D1000892B91F40091F7031091F8030E94351963
:102D20000E5C1F4F64E670E00E94601B080F191FC5
:102D3000109354010093530180915501811128C0D3
:102D40008091530190915401092E000CAA0BBB0BEA
:102D50004091F7035091F8036091F9037091FA03E1
:102D6000481759076A077B0798F081E0809355015F
:102D70000E943519B1010E94601B0C96909352017C
:102D80008093510186E090E09093500180934F0131
:102D900080915501882309F482C000914F01109160
:102DA00050010F5F1F4F1093500100934F010832E5
:102DB00011052CF4109271011092700109C08091DC
:102DC000700190917101019690937101809370014F
:102DD0008091700190917101873091050CF04FC086
:102DE000009761F02AE0289FF001299FF00D11243F
:102DF000EB55FF4FE49181010E1B1109A090510189
:102E0000B09052012AE0289F7001299FF00C1124F4
:102E100097012C553F4F402F6A2D84ED93E00E947F
:102E2000C60AF701EB55FF4FE491409173015091B1
:102E300074016091750170917601809163019091A8
:102E400064012091610130916201620F731F2C0DAA
:102E50003D1DA216B3061CF5F8E0AF0EB11C6A15B5
:102E60007B05ECF4480F591F8C0D9D1D08171907A1
:102E7000B4F40E0F111D401751078CF43FC110928E
:102E800055012FEF3FEF30935201209351013093C2
:102E9000500120934F0110925401109253018091E0
:102EA0004E01811118C080914A0190914B01892BEC
:102EB00091F40091F7031091F8030E943519065F11
:102EC0001F4F68E270E00E94601B080F191F1093EB
:102ED0004B0100934A0180914E01811158C08091AD
:102EE0004A0190914B01092E000CAA0BBB0B40919B
:102EF000F7035091F8036091F9037091FA034817B2
:102F000059076A077B0708F442C081E080934E01AD
:102F100040E06CE970E08BEA93E00E948D0A0E9429
:102F2000351962E070E00E94601B0296909349019F
:102F3000809348010E94351963E070E00E94601B95
:102F400080959095880F991F880F991F8C96909364
:102F50004701809346010E94351980FD07C041E07A
:102F600050E050934D0140934C0111C063E570E077
:102F700070934D0160934C018091480190914901FB
:102F80009195819591099093490180934801809191
:102F90004E01882309F44EC0A0904C01B0904D0121
:102FA0008091480190914901A80EB91EB0924D013F
:102FB000A0924C0180904601909047014FEF480D40
:102FC00023E06A2D84ED93E00E94740DE12C03E070
:102FD00021E0482D6A2D84ED93E00E94970D4091E9
:102FE0007301509174016091750170917601809127
:102FF0006301909164012091610130916201620F3F
:10300000731F2C0D3D1DA216B306A4F4E2E0AE0E14
:10301000B11C6A157B0574F4480F591F8C0D9D1D5A
:10302000881699063CF4F2E08F0E911C481559055C
:103030000CF488C080914E01882341F080914C01AE
:1030400090914D018435910508F0A0C080916D01EB
:1030500090916C01981710F480936C0180E090E0DF
:10306000892B09F440CB0E9400003ACB10926901F1
:103070001092680181E0809367012FEF3FEF30935A
:1030800066012093650131CC42E050E05093690124
:10309000409368011092670161E070E070936601EF
:1030A0006093650128CC80916301909164019093B5
:1030B0006B0180936A0125CC83E090E090936901D5
:1030C00080936801109266011092650120CC40E067
:1030D0006EE271E08BEA93E00E948D0A80916D01AF
:1030E0008E5F80936D0110925E0110925B011092D1
:1030F0005A0110925D0110925C01DFCD8BEA93E0E2
:103100000E94C10A80916E01815080936E011092DD
:103110005501EFEFFFEFF0935201E0935101F0936F
:103120005001E0934F0110925401109253011092FC
:103130004E01F0934D01E0934C0110924B0110921F
:103140004A01ADCE8BEA93E00E94C10A80916E01E4
:10315000815080936E0110924E012FEF3FEF30931C
:103160004D0120934C0110924B0110924A01109294
:103170005501309352012093510130935001209317
:103180004F01109254011092530154CF80916D0160
:103190008F5F80936D0110924E014FEF5FEF509360
:1031A0004D0140934C0110924B0110924A014ECFB9
:1031B0001092D7031092D6038DE091E09093D5033F
:1031C0008093D40380E090E00E94A11980936C0169
:1031D00008958F929F92AF92BF92CF92DF92EF921B
:1031E000FF92CF93DF93EC01688179818A819B8183
:1031F000611571058105910521F464E279ED8BE596
:1032000097E02DE133EF41E050E00E94B71949010A
:103210005A019B01AC01A7EAB1E40E94D6196B01E7
:103220007C01ACEEB4EFA50194010E94E419DC012D
:10323000CB018C0D9D1DAE1DBF1DB7FF03C00197B7
:10324000A109B04888839983AA83BB839F77DF91C4
:10325000CF91FF90EF90DF90CF90BF90AF909F9075
:103260008F9008950E94E918089581E091E00E94EE
:10327000E9180895A0E0B0E0809301019093020165
:10328000A0930301B093040108958F929F92AF928F
:10329000BF92CF92DF92EF92FF92CF93DF93EC0138
:1032A000688179818A819B8161157105810591050C
:1032B00021F464E279ED8BE597E02DE133EF41E015
:1032C00050E00E94B71949015A019B01AC01A7EADD
:1032D000B1E40E94D6196B017C01ACEEB4EFA501FC
:1032E00094010E94E419DC01CB018C0D9D1DAE1DE3
:1032F000BF1DB7FF03C00197A109B0488883998318
:10330000AA83BB83BC01CD019F77DF91CF91FF9052
:10331000EF90DF90CF90BF90AF909F908F900895E7
:103320000E944519089585E091E00E94451908958D
:103330006093050170930601809307019093080143
:103340000895F999FECF92BD81BDF89A992780B56D
:103350000895262FF999FECF1FBA92BD81BD20BDD9
:103360000FB6F894FA9AF99A0FBE01960895052EB1
:1033700097FB1EF400940E94CE1957FD07D00E94BF
:10338000E91907FC03D04EF40C94CE1950954095E2
:10339000309521953F4F4F4F5F4F08959095809501
:1033A000709561957F4F8F4F9F4F08950E940B1A24
:1033B000A59F900DB49F900DA49F800D911D112489
:1033C0000895B7FF0C94D6190E94D619821B930B4F
:1033D0000895A1E21A2EAA1BBB1BFD010DC0AA1F56
:1033E000BB1FEE1FFF1FA217B307E407F50720F06E
:1033F000A21BB30BE40BF50B661F771F881F991FE9
:103400001A9469F760957095809590959B01AC0131
:10341000BD01CF010895A29FB001B39FC001A39F3A
:10342000700D811D1124911DB29F700D811D1124FD
:10343000911D08950E948E1A88F09F5798F0B92F19
:103440009927B751B0F0E1F0660F771F881F991FD9
:103450001AF0BA95C9F714C0B13091F00E94A81AB9
:10346000B1E008950C94A81A672F782F8827B85FC9
:1034700039F0B93FCCF3869577956795B395D9F731
:103480003EF490958095709561957F4F8F4F9F4F3B
:103490000895E89409C097FB3EF490958095709547
:1034A00061957F4F8F4F9F4F9923A9F0F92F96E990
:1034B000BB279395F695879577956795B795F11105
:1034C000F8CFFAF4BB0F11F460FF1BC06F5F7F4FA2
:1034D0008F4F9F4F16C0882311F096E911C07723B4
:1034E00021F09EE8872F762F05C0662371F096E8BD
:1034F000862F70E060E02AF09A95660F771F881F8C
:10350000DAF7880F9695879597F9089557FD9058A3
:10351000440F551F59F05F3F71F04795880F97FB97
:10352000991F61F09F3F79F0879508951216130651
:103530001406551FF2CF4695F1DF08C01616170680
:103540001806991FF1CF86957105610508940895B5
:10355000E894BB2766277727CB0197F908950E9447
:10356000C21A0C94331B0E94251B38F00E942C1B9E
:1035700020F0952311F00C941C1B0C94221B112499
:103580000C94A91A0E94861A70F3959FC1F3950FA7
:1035900050E0551F629FF001729FBB27F00DB11DD7
:1035A000639FAA27F00DB11DAA1F649F6627B00D67
:1035B000A11D661F829F2227B00DA11D621F739F50
:1035C000B00DA11D621F839FA00D611D221F749F5E
:1035D0003327A00D611D231F849F600D211D822FA5
:1035E000762F6A2F11249F5750409AF0F1F08823CC
:1035F0004AF0EE0FFF1FBB1F661F771F881F9150F9
:103600005040A9F79E3F510580F00C941C1B0C9470
:10361000A91A5F3FE4F3983ED4F3869577956795B2
:10362000B795F795E7959F5FC1F7FE2B880F911D22
:103630009695879597F9089597F99F6780E870E0C8
:1036400060E008959FEF80EC089500240A94161618
:10365000170618060906089500240A941216130680
:10366000140605060895092E0394000C11F488230E
:1036700052F0BB0F40F4BF2B11F460FF04C06F5F2A
:103680007F4F8F4F9F4F0895DB018F939F930E9431
:10369000D619BF91AF91A29F800D911DA39F900D50
:1036A000B29F900D11240895991B79E004C0991FD1
:1036B000961708F0961B881F7A95C9F7809508958C
:1036C00097FB072E16F4009407D077FD09D00E94CF
:1036D000741B07FC05D03EF4909581959F4F08958B
:1036E000709561957F4F0895AA1BBB1B51E107C0E0
:1036F000AA1FBB1FA617B70710F0A61BB70B881F82
:10370000991F5A95A9F780959095BC01CD01089510
:10371000EE0FFF1F0590F491E02D099481E090E0F9
:10372000F8940C949A1BDC0101C06D9341505040F9
:08373000E0F70895F894FFCFC3
:1037380001010000000100000000000000A80CF6D4
:103748000722082108594F552044494544000D0ACD
:103758000053434F52453A20003030300048494723
:10376800482053434F524521000300484920004C4C
:063778004F4144455200E0
:00000001FF
