:100000000C94A3020C94CB020C94CB020C94CB0264
:100010000C94CB020C94CB020C94CB020C94CB022C
:100020000C94CB020C94CB020C94CB020C94440A9B
:100030000C94CB020C94CB020C94CB020C94CB020C
:100040000C94FA090C94CB020C94CB020C94CB02C6
:100050000C94CB020C94CB020C94CB020C94CB02EC
:100060000C94CB020C94CB020101FF030101F703B6
:100070006C00680000000000240027002A00000037
:100080000000250028002B000500893008023802F6
:1000900049786814000047414D453100050068016A
:1000A0003801000008053810383810000000080436
:1000B0003810387C000000000803BAD67C0000002D
:1000C00000000803BAD67C00000000000804AA570C
:1000D000BBD6000000000804AA57BBD600000000F1
:1000E0000802AA5700000000000008057088B888C0
:1000F0007000000008052050A850200000000805EE
:1001000070F8F888700000000808387478501810EB
:10011000101008083874B81038101814080838F48B
:1001200038101810284408083874B81038103050A7
:10013000080638747850183800000803FF99FF4704
:10014000414D4531000500380168010000401E00A6
:10015000000000000000000000000000000000009F
:1001600000000010000000000000000F0000000070
:1001700000000C7F80000000000007FF80000000EE
:10018000000007FFC000000000000FF0C0000000EA
:10019000000007C04000000000000784400000008D
:1001A0000000030140000000000007808000000004
:1001B000000079C100000000000181F20000000091
:1001C000000201FC0000000000027FFA00000000B5
:1001D00000018FF26000000000001FF1A00000008D
:1001E00000001FFC2000000000003FD3C000000002
:1001F00000005FD00000000000008FF00000000051
:10020000000107F98000000000020FFF80000000DD
:10021000000411FF800000000004207F8000000027
:100220000002101F000000000001E00600000000B6
:1002300000000000000000000000000000000017A7
:1002400053440016137800161314001510200015DF
:10025000201000540A03E181867F3E186D830F0F42
:100260000E0183866033186DC3198F1803C38E6027
:1002700033186DE330CF1803C39E603630CDE36092
:10028000CF3006C79E7E3E30CDB360CF300CC6F671
:10029000603330D9B660CF33CFCCF66061B0DB1EAF
:1002A00060CF30D86CE6C061B0DB1E618F19986CEE
:1002B000C6C063B19B0E330F0FB078C6FF7E1F1B05
:1002C000061E0FF6E8DBCFC3B8AEA49B928A827BF2
:1002D000746E68625C57524E4945413E3A3734313C
:1002E0002E2C29272523210A0A153A49676E6F7299
:1002F00065006D560A0A504C4541534520545552ED
:100300004E204F464620004C4F5720424154544502
:10031000525921200003053F213F1208120A100AFA
:100320000E1C0E0C1E0C141A14161F161E131E1E65
:100330001B1E1E1F1E3F213F3A2F3A173D173F211C
:100340003F181F02040A041F0E04040E1F0A1F0A8E
:100350000E0E1F04110E2E252E2F2A2E26292902BD
:100360001F02081F08150E04040E150E15151B1587
:100370001B040604040C0400000000170003000323
:100380001F0A1F16371A1904130A153A0003000032
:100390000E11110E000A040A040E040030000404B9
:1003A000040010001804031F111F121F101D151741
:1003B00011151F07041F17151D1F151D01011F1FF4
:1003C000151F17151F000A00003200040A110A0A3F
:1003D0000A110A040115020E11171E051E1F150A27
:1003E0000E110A1F110E1F15111F05010E111D1FE1
:1003F000041F111F1108100F1F041B1F10101F06D0
:100400001F1E040F0E110E1F09060E112E1F051AB6
:10041000121509011F011F101F0F180F1F0C1F1BA2
:10042000041B031C03191513001F11030418111FCB
:10043000000201022020200001020C121E1F120CDB
:100440000C12120C121F0C1A14041E05242A1E1F53
:10045000021C141D1020201D1F0814111F101E0443
:100460001E1E021C0C120C3E0A040C123E1E04023C
:1004700014160A020F120E101E0E100E1E081E1267
:100480000C1226281E322A26041E21001F00211EBF
:10049000040102013F213F172B152010204C4F4132
:1004A00044455200172B1620131400450068010024
:1004B000000A4E6F2053442063617264206F720AF9
:1004C0006E6F204C4F414445522E4845580A0A153C
:1004D0003A45786974001D20466C617368696E67DF
:1004E0000A20206C6F616465722E2E2E0A0A444F1A
:1004F0004E2754205455524E204F464621000000AE
:100500000000230026002900040404040404040459
:1005100002020202020203030303030301020408AE
:10052000102040800102040810200102040810205D
:1005300000000008000201000003040700000000A2
:1005400000000000661911241FBECFEFD8E0DEBF07
:10055000CDBF11E0A0E0B1E0E4E5F8E302C0059012
:100560000D92AE34B107D9F724E0AEE4B1E001C09A
:100570001D92A831B207E1F712E0C3EAD2E004C04D
:100580002197FE010E94161CC23AD107C9F70E94AA
:10059000BF100C94281C0C9400004F925F926F9235
:1005A0007F928F929F92AF92BF92CF92DF92EF9203
:1005B000FF920F931F93CF93DF9300D000D01F9231
:1005C000CDB7DEB74091110450911204609113042D
:1005D000709114042FB7F89480918701909188014D
:1005E000A0918901B0918A012FBF481B590B6A0B5A
:1005F0007B0B8091100490E0A0E0B0E000910C042F
:1006000010910D0420910E0430910F04841795076A
:10061000A607B70730F4011511052105310509F0CA
:1006200033C3012B022B032B09F02CC38091A803A9
:1006300081508E3F18F58091A703813021F580917C
:10064000BB038F5F6091BC0387FD09C0082E000CBF
:10065000990B70E06F5F7F4F0E94EE1B682F6093D5
:10066000BB0384EA94E0909316048093150488E415
:100670008093170486EB93E00E94CC0A8091A80334
:1006800081508E3F70F48091A603813009F0A8C399
:1006900087E994E0909316048093150488E480938E
:1006A000170480E00E947D0F8091B703882309F42E
:1006B000ADC08091CB038111A9C08091C3039091FB
:1006C000C403E091C803F091C903EE0FFF1FE80FC8
:1006D000F91F459154914115510501F52091C7032A
:1006E000222331F01092C9031092C803FC0114C0F8
:1006F0001092B7038091B603882341F080E00E94F6
:100700007D0FE091C803F091C9032FC060E086EB34
:1007100093E00E94870A7AC0459154919A013695D8
:1007200027953695279540FF51C0CA0116E096954A
:1007300087951A95E1F78F71952F969596959695D1
:1007400090512F70223071F1F8F4211117C08B30C5
:1007500008F08AE08093CC03E091C803F091C903CC
:100760003196F093C903E093C803EE0FFF1F809109
:10077000C3039091C403E80FF91FCECF213061F776
:1007800060E00E94BE0FE8CF2330B1F0243021F7A3
:100790002091BA03829F802D11248093D3039093DC
:1007A000D403DACF2091BA03829F802D1124809345
:1007B000CF039093D003D0CF2091BA03829F802D96
:1007C00011248093D1039093D203C6CF2F7320932B
:1007D000CA038091BA03859F802D11248093CB0397
:1007E0001092DB031092DA031092D90381E0809318
:1007F000CD03809382011092CE038091C803909123
:10080000C90301969093C9038093C8038091CD03D7
:10081000882309F4F3C08091CB03811106C060E006
:1008200086EB93E00E94870AE9C081508093CB0356
:100830008091DB03811148C02091D9033091DA0304
:100840002F5F3F4FC901880F991FE091D503F091A9
:10085000D603E80FF91F65917491862F87708093F6
:10086000DC03AB01E3E056954795EA95E1F7CA0151
:1008700096958795972F969596959093DD038F7310
:100880009091BA03899F802D11248093DB034170DE
:10089000409386013093DA032093D9038091D703E4
:1008A00090E02817390780F02091D803222339F0EF
:1008B000821B91099093DA038093D90305C060E00D
:1008C00086EB93E00E94870A8091DB03815080933E
:1008D000DB038091CE0321E0280F2093CE034091CB
:1008E000CA033091DD03340F8091C203380F309377
:1008F000B8036091D103662371F070E0822F022E5D
:10090000000C990B0E94EE1B8091D203869F300D44
:1009100011243093B8038091B80390E0849664E288
:1009200070E00E94EE1B8093B8033091CC033093AB
:10093000B9036091CF03662381F0062E000C770B7C
:10094000822F022E000C990B0E94EE1B8091D00387
:10095000869F300D11243093B9036091D303662331
:10096000A1F0822F220F990B70E00E94EE1BCB01A9
:1009700062E070E00E94EE1B2091D4039091B903D5
:10098000289F900D11249093B9038091B9034F33A0
:1009900041F08A300CF089E087FD80E08093B90354
:1009A00002C01092B903F894E091B803F0E0ED535F
:1009B000FD4FE491E09385013091B9032091DE036E
:1009C0003203900111244091DC034203C001439F94
:1009D000900D11240090BB0302C0880F991F0A9448
:1009E000E2F797FF02C081589F4F880F892F881F19
:1009F000990B8093840180938301789480911704EC
:100A0000882309F496C08C3020F49CE0C92EC81AC3
:100A100001C0C12CDD24D394D092E7031092FF03D0
:100A200010920004E090E4033DE2B32E1B2D1E194A
:100A30001C0D03E00E0D2EE4412F63E08FED93E0DB
:100A40000E947C0C4CEFF42EFE0C1D5FEF2C01E09D
:100A500023E0412F60E58FED93E00E94A20D02E0BC
:100A600023E0412F63E08FED93E00E94A20DD0922E
:100A7000FF03D09200040091E40313E0100FEB2C6D
:100A8000E01AEC0C23E04E2D622F8FED93E02D83C6
:100A90000E94240C2D812F5F2135A9F71E0DFF2404
:100AA000FA94F10E23E04F2D622F8FED93E02D830A
:100AB0000E94240C2D812F5F2135A9F7035033E0CC
:100AC000E30E202F4E2D60E08FED93E00E947F0D0E
:100AD000202F4E2D63E58FED93E00E947F0D41E0C6
:100AE0006E2D83E00E94F90F42E06E2D80E50E949A
:100AF000F90F145044E0612F80E50E94F90F48E09F
:100B0000612F83E00E94F90F84E08093E8038091D5
:100B1000E403C81A8C2D815D8093E903809115044C
:100B2000909116040E94210F8091170481508093A8
:100B300017048091AD039091AE03892B09F484C012
:100B400011E01093FF03109200049091E30385E5F8
:100B5000891B8093E8031092E9038091AA038130F6
:100B600009F455C030F09091A903853008F067C0B2
:100B700062C060E086EB93E00E94870A1092B703A0
:100B80001093E703E5E1F3E0E491EF5FE093E30323
:100B9000E6E1F3E0E491EF5FE093E40387E193E0C3
:100BA0009093FE038093FD031092AE031092AD0369
:100BB0001092E50318EA0E94CD028823E1F387E052
:100BC00093E00E94210F4091AB035091AC0360E091
:100BD00070E02AE08FED93E00E94470882EF92E0F8
:100BE0000E94210F412F42954F7050E060E070E06D
:100BF0002AE08FED93E00E94470887EE92E00E9482
:100C0000210F8091A603813009F0F0C01DC08091B2
:100C1000020490910304A0910404B09105048F7024
:100C20009927AA27BB270897A105B10510F487E0EB
:100C300009C088E707C0992339F08B5F03C0992367
:100C400019F08FE20E9477100E94E10E8091E50377
:100C5000811104C08FED93E00E94130C0E949B0948
:100C600060930C0470930D0480930E0490930F0412
:100C70002091080430910904621B730B70930704E0
:100C80006093060480E0CCC02FB7F8948091870170
:100C900090918801A0918901B0918A012FBF209184
:100CA0001004820F911DA11DB11D8093110490931A
:100CB0001204A0931304B093140480910204909141
:100CC0000304A0910404B09105040196A11DB11D77
:100CD0008093020490930304A0930404B09305044A
:100CE00010920C0410920D0410920E0410920F0436
:100CF0000E949B09609308047093090480930A047E
:100D000090930B0480919203909193032FE0289F7E
:100D10008001299F100D112485E10E948409800F14
:100D2000911F24E0969587952A95E1F79093930378
:100D30008093920320919103222309F44BC0609188
:100D40009503262F30E040E050E029833A834B831F
:100D50005C83C0909603D12CE12CF12C4091990337
:100D600050919A034A01A12CB12C20919703309104
:100D700098032901612C712C8217930728F09C019C
:100D80004817590708F49A01C901A0E0B0E09C0196
:100D9000AD01241935094609570969817A818B818A
:100DA0009C816C197D098E099F090E94D21BA501A7
:100DB000940124193509460957090E94451AC20EA3
:100DC000D31EE41EF51EC09294036C2D70E085E0E6
:100DD0000E9425090E946E0E0E94821081E020C0B0
:100DE000893209F05ECC0E94520F5BCC115009F0A1
:100DF000E2CE60E070E085E00E94250983B7817F44
:100E0000846083BF83B7816083BF83B7816083BF02
:100E1000889583B78E7F83BF83B78E7F83BFCBCE0A
:100E20000F900F900F900F900F90DF91CF911F9127
:100E30000F91FF90EF90DF90CF90BF90AF909F9079
:100E40008F907F906F905F904F900895CF92DF9238
:100E5000EF92FF920F931F93CF93DF93EC0181E00A
:100E60008093E7031092E6031092E5031092A90322
:100E70008093FF03809300041CE00E94CD0288232E
:100E8000E1F3FE018491882319F00091E40301C08D
:100E900000E023E532E040E060E08FED93E00E9467
:100EA000D10A4CE0400F2DE431E060E08FED93E09B
:100EB0000E94D10A1092E8031093E903CE010E9428
:100EC000210F8091E303982F990F890F81958D5AF7
:100ED0008093E8038091E403982F990F890F8195FF
:100EE000835D8093E9038091020484FF03C08FE453
:100EF00092E002C08BE492E00E94420F8091E303F3
:100F0000982F990F890F81958D5A8093E8038091CE
:100F1000E9038F5F8093E9038091BB03882319F075
:100F200087E492E002C083E492E00E94420F909135
:100F3000E303892F880F980F91959D5A9093E803AA
:100F40008091E9038F5F8093E9038FE392E00E9431
:100F5000420F8091A7038130B1F48091BB038F5F72
:100F60006091BC0387FD09C0082E000C990B70E04E
:100F70006F5F7F4F0E94EE1B682F6093BB0386EB71
:100F800093E00E94CC0A8091A6038130A9F0809161
:100F90000104482F50E060E070E0C0900204D0905F
:100FA0000304E0900404F0900504C416D506E60698
:100FB000F706F8F08F3FE9F08FEF8093010460E0CF
:100FC00086EB93E00E94870A1092B70340E065E445
:100FD00071E086EB93E00E94980A81E08093A90378
:100FE000DF91CF911F910F91FF90EF90DF90CF9005
:100FF00008958091A803813009F03FCF0E94520FDD
:101000003CCFCF92DF92EF92FF920F931F93CF933B
:10101000DF936C017A018B01C0E0D0E0CE15DF05D3
:1010200089F0D8016D918D01D601ED91FC9101906F
:10103000F081E02DC6010995892B11F47E0102C0D3
:101040002196ECCFC701DF91CF911F910F91FF90B7
:10105000EF90DF90CF900895089580E090E008959C
:101060000E941C1C6115710579F0FB0101900020A4
:10107000E9F73197AF01461B570BDC01ED91FC916D
:101080000280F381E02D099480E090E008954F9272
:101090005F926F927F92EF92FF920F931F93CF9385
:1010A000DF93CDB7DEB7A1970FB6F894DEBF0FBEC2
:1010B000CDBF7C01FA01CB0119A2223008F42AE04D
:1010C0008E010F5D1F4F422E512C612C712CBF01E0
:1010D000A30192010E94771AF901CA010150110976
:1010E0006A3014F4605D01C0695CD8016C93232BF5
:1010F000242B252B61F7B801C7010E943208A19665
:101100000FB6F894DEBF0FBECDBFDF91CF911F9118
:101110000F91FF90EF907F906F905F904F900895A8
:10112000833081F028F4813099F08230A1F0089565
:101130008730A9F08830B9F08430D1F480918000F4
:101140008F7D03C0809180008F7780938000089509
:1011500084B58F7702C084B58F7D84BD089580915A
:10116000B0008F7703C08091B0008F7D8093B00076
:1011700008951F93CF93DF93282F30E0F901E05DAE
:10118000FA4F8491F901E45EFA4FD491F901E85FD6
:10119000FA4FC491CC23C9F0162F81110E949008F8
:1011A000EC2FF0E0EE0FFF1FE258FF4FA591B49136
:1011B0008FB7F894111105C09C91ED2FE095E923AC
:1011C00002C0EC91ED2BEC938FBFDF91CF911F917B
:1011D0000895CF93DF9390E0FC01E45EFA4F2491F1
:1011E000FC01E85FFA4F8491882361F190E0880F59
:1011F000991FFC01EC58FF4FC591D491FC01E258B6
:10120000FF4FA591B491611109C09FB7F8948881EF
:10121000209582238883EC912E230BC0623061F4E9
:101220009FB7F8943881822F809583238883EC912F
:101230002E2B2C939FBF06C08FB7F894E8812E2BDE
:1012400028838FBFDF91CF9108951F93CF93DF93B2
:10125000182FEB0161E00E94E908209711F460E08B
:1012600004C0CF3FD10539F461E0812FDF91CF91E8
:101270001F910C94B908E12FF0E0E05DFA4FE49182
:10128000E330F9F048F4E130B9F0E230A1F584B58B
:10129000806284BDC8BD34C0E730E9F0E83019F1A0
:1012A000E43049F580918000806280938000D09383
:1012B0008B00C0938A0024C084B5806884BDC7BDFC
:1012C0001FC080918000806880938000D093890047
:1012D000C093880015C08091B00080688093B000F2
:1012E000C093B3000DC08091B00080628093B000C5
:1012F000C093B40005C0C038D1050CF0B5CFAFCF56
:10130000DF91CF911F9108958E3008F08E50877035
:10131000806480937C0080917A00806480937A005E
:1013200080917A0086FDFCCF809178002091790031
:1013300090E0922B08953FB7F89480918D019091A1
:101340008E01A0918F01B091900126B5A89B05C098
:101350002F3F19F00196A11DB11D3FBFBA2FA92F34
:10136000982F8827820F911DA11DB11DBC01CD01B1
:1013700042E0660F771F881F991F4A95D1F708959D
:101380008F929F92AF92BF92CF92DF92EF92FF9295
:101390006B017C010E949B094B015C01C114D104CB
:1013A000E104F104F1F00E949B09DC01CB018819F2
:1013B0009909AA09BB09883E9340A105B10570F3BC
:1013C00021E0C21AD108E108F10888EE880E83E016
:1013D000981EA11CB11CC114D104E104F10419F739
:1013E000DDCFFF90EF90DF90CF90BF90AF909F90B8
:1013F0008F9008951F920F920FB60F9211242F9382
:101400003F938F939F93AF93BF9380918701909168
:101410008801A0918901B0918A0130918C0123E06B
:10142000230F2D3720F40196A11DB11D05C026E81C
:10143000230F0296A11DB11D20938C01809387017B
:1014400090938801A0938901B0938A0180918D01C6
:1014500090918E01A0918F01B09190010196A11DF4
:10146000B11D80938D0190938E01A0938F01B09355
:101470009001BF91AF919F918F913F912F910F90CC
:101480000FBE0F901F9018951F920F920FB60F92DC
:1014900011242F936F937F938F939F936091840177
:1014A000662359F180918B018F5F80938B0190911E
:1014B0008501891710F12091820181E0282720936E
:1014C000820110928B0180918601882369F08091BE
:1014D000000193E4899F802D1124895B8093000192
:1014E0000E94E21B90938301222329F080918301C3
:1014F0008093B40002C080E0FBCF9F918F917F91D9
:101500006F912F910F900FBE0F901F901895FC01B7
:1015100061110DC0178A158A14A213A2108E1092A1
:10152000830110928401109282011092B4000895F8
:10153000EF92FF920F931F93CF93DF931F92CDB73C
:10154000DEB77C018B01411105C060E049830E9438
:10155000870A498150E0FA01EE0FFF1FEE0DFF1DD3
:1015600016870587DA011996AA0FBB1FAE0DBF1D9E
:101570001D921C92F701E40FF51F81E0818389E041
:10158000868B118E138E158E0F90DF91CF911F9148
:101590000F91FF90EF90089540E06BEA74E00C9497
:1015A000980A4F925F926F927F928F929F92AF9222
:1015B000BF92CF92DF92EF92FF920F931F93CF9340
:1015C000DF93F901C49031965491EC0108A1643580
:1015D0000CF018C10C2C000CDD08A62F062E000CF8
:1015E000BB0B7D01EC0CFD1C1E141F040CF00AC18A
:1015F00040330CF007C1A52E842E042E000C990850
:10160000F401E50FF11D57FDFA951E161F060CF0AB
:10161000F9C02E5F3F4FE6012796D7FD279673E06E
:10162000D595C7957A95E1F747FF0AC0A52EA40E78
:10163000C89DA001C99D500D1124241B350B40E00D
:10164000EA2D0A2C000CFF0BE40FF11D47FDFA9563
:10165000F1971CF050E3A52EA41A67FD60E0F70196
:10166000E535F10514F0E4E5F0E07E2FFC01D484CB
:10167000D426862F062E000C990BFC01EA1BFB0BCF
:10168000DF017F01F7E0EF22FF24E0E8F0E002C095
:10169000F595E795EA94E2F71E2FB7FD179653E00C
:1016A000B595A7955A95E1F72A0F3B1FE42FE770F0
:1016B00051E001C0550FEA95EAF7459545954595E6
:1016C000B4E54B02800D911D11248F569E4FC12C05
:1016D0000A2C000CBB08992493942E015524EC2D60
:1016E000F0E0EA15FB050CF08DC0F90144910130E2
:1016F000E1F47C01A12F862E881AB82DBE0DB717F4
:1017000008F077C0B42FBA2321F0E701B881B52BD8
:10171000B883B0E0B595A795109719F43196449128
:10172000A0E8DFEFED1AFD0AE8CF01111FC0752E0A
:1017300070947C01A12FF901862E881AB82DBE0D58
:10174000B71708F056C0B42FBA2321F0E701B881CB
:10175000B721B883B0E0B595A795109719F43196E5
:101760004491A0E8DFEFED1AFD0AE8CF033031F035
:101770007C01A12FF901862E881A37C0752E70942E
:10178000862E7C01A12FF9018716D8F4B42FBA2335
:1017900059F0E701B881682C6D2460FE02C0B52BBA
:1017A00002C0B721E701B883B0E0B595A7951097BF
:1017B00019F431964491A0E88394DFEFED1AFD0A05
:1017C000E3CFD92416C0B42FBA2321F0E701B881A2
:1017D000B527B883B0E0B595A795109719F4319661
:1017E0004491A0E8DFEFED1AFD0AB82DBE0DB71742
:1017F00050F3550F19F48C5A9F4F51E0C394240DA8
:10180000351D6DCFDF91CF911F910F91FF90EF901C
:10181000DF90CF90BF90AF909F908F907F906F9010
:101820005F904F90089528EF31E0E1E9F1E0DF01AA
:10183000A9011D9241505040E1F7DC0119961C921C
:1018400019971A961C920895FC01643508F053C04C
:10185000403308F050C090A1742F7595759575951B
:10186000262F062E000C330B542F57709230A1F404
:10187000F901EF56FE4F84E57802E00DF11D1124C9
:10188000808190E0052E02C0959587950A94E2F735
:101890008095982F91700AC0933041F484858170AF
:1018A000462740954170841303C014C0911112C0A3
:1018B00084E57802200D311D1124F901EF56FE4F09
:1018C00081E090E001C0880F5A95EAF780959081F9
:1018D000892310C084E57802200D311D1124F901FF
:1018E000EF56FE4F81E090E001C0880F5A95EAF76D
:1018F0009081892B80830895BF92CF92DF92EF92DF
:10190000FF920F931F93CF93DF931F92CDB7DEB754
:101910007C01D62EC42E002E000C110B040F111DBD
:1019200047FD1A954C2D0C2C000C550B40175107F8
:101930007CF4B12CB21654F46B2D6D0D4C2DC701F7
:1019400029830E94240CB3942981F4CFC394EACF55
:101950000F90DF91CF911F910F91FF90EF90DF904B
:10196000CF90BF9008956F927F928F929F92AF9287
:10197000BF92CF92DF92EF92FF920F931F93CF937C
:10198000DF93EC016A3019F42D819885A1C06D3088
:1019900009F4A4C01885BA84D98488A083E58D157C
:1019A0000CF47FC08FE28B150CF47BC08C8190E02F
:1019B0000197189F9001199F300D1124C9018D0DB9
:1019C000911DD7FC9A95181619060CF06AC08D81E6
:1019D000819FC00111248B0D911DB7FC9A9518169B
:1019E00019060CF05EC09D2CCD2CE62EF12CEC2DB2
:1019F000ED190E2E000CFF0B8C8190E0E817F90713
:101A00000CF04EC00197E817F90779F0E89E9001B5
:101A1000E99E300DF89E300D1124E20FF31F8E8DDC
:101A20009F8DE80FF91F749001C0712C6B2CAB2CAB
:101A30002A2D2B19022E000C330B8D8190E02817D4
:101A400039075CF570FE10C0113031F44A2D6C2D51
:101A5000CE010E94240C1DC0012F212F462D692D7F
:101A6000CE010E947C0C15C089A198A1891789F02C
:101A700088A3113031F44A2D6C2DCE010E94240C24
:101A800007C0012F212F462D692DCE010E947C0C0D
:101A900088A27694A394610ECBCFC394910EA7CF66
:101AA00088A228853C818985329F800D11248987F1
:101AB0009F81992399F0082E000C990B44E550E082
:101AC000239F401951091124481759073CF49D815F
:101AD0008A85299F800D11248A87198681E090E0EC
:101AE000DF91CF911F910F91FF90EF90DF90CF90FA
:101AF000BF90AF909F908F907F906F900895DF92EE
:101B0000EF92FF920F931F93CF93DF931F92CDB766
:101B1000DEB78C01D62EF42EE12CE21654F44E2DB5
:101B20004F0D6D2DC80129830E94240CE394298157
:101B3000F4CF0F90DF91CF911F910F91FF90EF9015
:101B4000DF9008958F929F92AF92BF92CF92DF92D3
:101B5000EF92FF920F931F93CF93DF936C01B62EFA
:101B6000A42EC22F11E0121BF22EF194FF0CD1E033
:101B7000802F8170882E992493949E0C02708FEF91
:101B80008D0F8C17C4F517FD04C0C150F394F39466
:101B90001F0D8D2F880F8F5F180F882099F02C2F25
:101BA000220F290D4A2D4C1B6D2F6B0DC6010E9473
:101BB0007F0D23E02E0D4A2D4D1B6C2F6B0DC601A2
:101BC0000E947F0D002399F02C2F220F290D4A2D02
:101BD0004C1B6B2D6D1BC6010E947F0D23E02E0D4B
:101BE0004A2D4D1B6B2D6C1BC6010E947F0DDF5FC4
:101BF000E394E394C4CFDF91CF911F910F91FF90B5
:101C0000EF90DF90CF90BF90AF909F908F9008950E
:101C10001092720186E290E090936D0180936C01C6
:101C200084E290E090936F0180936E0181E090E0F8
:101C3000909371018093700122E030E030936B014A
:101C400020936A018FEF9FEF90937401809373014B
:101C500010927601109275011092540190935301E5
:101C60008093520148E250E050934F0140934E015F
:101C70003093580120935701109251011092500156
:101C8000109256011092550110925F0190935E01DF
:101C900080935D0190935C0180935B0110925A01E7
:101CA000109259011092690110926601909365019A
:101CB0008093640180E290E09093610180936001E1
:101CC00010926801109267011092630110926201F4
:101CD00083E080937901109278010895CF92DF928A
:101CE000EF92FF920F931F93CF93DF93CBE9D3E053
:101CF00002EA13E0FF24FA9497E0E92EE00E62E096
:101D000088810E94E908288130E0F901E05DFA4FFE
:101D10008491F901E45EFA4FC490F901E85FFA4F4B
:101D2000D490DD2071F081110E949008ED2DF0E03B
:101D3000EE0FFF1FE250FB4FA591B491EC91EC2107
:101D4000B1F4F80180818F5F808360E088810E9418
:101D5000E90821960F5F1F4FE012D1CFDF91CF919D
:101D60001F910F91FF90EF90DF90CF900895F801B1
:101D70008081882371F3F8018F3F11F41082E5CF41
:101D8000F082E3CFCF93C82FF89460E08091EE0308
:101D90000E94B9088091EF0318161CF460E00E94BD
:101DA000B908CEBD00000DB407FEFDCF8EB5809101
:101DB000EF0318161CF461E00E94B9087894CF91E3
:101DC00008950F931F93CF938091EB038F5F8093C0
:101DD000EB0301E911E0C0E08C2F80640E94C20E89
:101DE00080E80E94C20E61E08091EE030E94B90873
:101DF0008091EF0318161CF460E00E94B90880E09F
:101E000090E0F801E80FF91F20812EBD00000DB40D
:101E100007FEFDCF2EB501968435910591F780918F
:101E2000EF0318161CF461E00E94B908CF5F0C5A4A
:101E30001F4FC63089F680E4CF911F910F910C940B
:101E4000C20E0F931F93CF93DF938C01C0E0D0E0BD
:101E5000F801EC0FFD1F6491662371F0E091DF0340
:101E6000F091E0030190F081E02D8FED93E0099572
:101E7000892B11F02196ECCFCE01DF91CF911F91EC
:101E80000F910895CF93DF930E94210FEC0166E23A
:101E900071E08FED93E00E9432088C0F9D1FDF915F
:101EA000CF9108958FED93E00E94130C86ED94E09E
:101EB0000E94210F0E94E10E8CB583608CBD8DB510
:101EC0008E7F8DBD87E491E0EEEFFFE309951092E0
:101ED000E50381EB94E00E94420F0E94E10E0E9414
:101EE0006E0E8091A603813039F062E370E080E0ED
:101EF00090E00E94C009F3CF0895CF93DF93482F5D
:101F000050E0EA01CF56DC4F9DA19923A1F19EA19B
:101F1000911131C09EA5FA01EE0FFF1FE856FC4F4C
:101F200035A126A1E32FF22FE90FF11DE90FF11DD5
:101F3000259134912F3F9FEF390711F41DA21BC04B
:101F400039AB440F551FFA01E556FC4F3327220FDA
:101F5000331F05A0F6A1E02DE20FF31F65917491E8
:101F6000811105C040E086EB93E00E94980A299613
:101F70008DA18F5F8DA3DF91CF91089570E0DB017C
:101F8000AA0FBB1FAF56BC4FD4962C91D497D596B1
:101F90009C91D597E22FF92FE80FF11DE80FF11D65
:101FA000259134915F9696963C932E939597F901DF
:101FB000859194919091BA03989F802D11246F562A
:101FC0007C4FFB01B19685A3F901A591B4914B2FEC
:101FD00050E0E82FF0E04E175F0720F4F90125915B
:101FE0003491832FFB01B296899F802D112485A304
:101FF0000895AF92BF92CF92DF92EF92FF920F932C
:102000001F93CF93DF93182F062FC1E0D3E08AEF01
:10201000D82E9EEFE92E842F8470C82E842F8270D4
:10202000B82E842F8870A82E4170F42E8C2F880F24
:102030008F5FE80ECC2081F04D2F400F6C2F610F89
:102040008FED93E00E94240C4C2F400F6D2F610FF9
:102050008FED93E00E94240CBB2081F0402F4D1B9C
:102060006C2F610F8FED93E00E94240C402F4C1BCE
:102070006D2F610F8FED93E00E94240CAA2081F058
:102080004C2F400F612F6D1B8FED93E00E94240CAD
:102090004D2F400F612F6C1B8FED93E00E94240C9D
:1020A000FF2081F0402F4C1B612F6D1B8FED93E0C3
:1020B0000E94240C402F4D1B612F6C1B8FED93E071
:1020C0000E94240CCD1744F4E7FC04C0D150D394F3
:1020D000D394ED0CCF5FAACFDF91CF911F910F91D9
:1020E000FF90EF90DF90CF90BF90AF900895E09178
:1020F000DF03F091E0030190F081E02D682F8FED78
:1021000093E009948091AD039091AE03892BB1F1D6
:102110008091B5038F7169F584E10E948409BC0147
:10212000990F880B990B0E94D91A26EE3FE34EECCB
:1021300050E40E943D1B0E94A81A9B017093AC03BF
:102140006093AB03672B91F084E08093AA03EDEAE0
:10215000F3E080E0419151912417350718F4809302
:10216000AA0308958F5F8430A9F703C08FEF80938F
:10217000AA038091B5038F5F8093B5030895CF9331
:10218000DF93CDB7DEB72E970FB6F894DEBF0FBE44
:10219000CDBF789484B5826084BD84B5816084BDF0
:1021A00085B5826085BD85B5816085BD80916E00F5
:1021B000816080936E001092810080918100826026
:1021C0008093810080918100816080938100809163
:1021D00080008160809380008091B1008460809352
:1021E000B1008091B00081608093B00080917A004E
:1021F000846080937A0080917A00826080937A0074
:1022000080917A00816080937A0080917A00806862
:1022100080937A001092C100809177018F3F11F472
:102220001092770182E38093100481E090E0A0E0B7
:10223000B0E080930C0490930D04A0930E04B0932F
:102240000F048FEF80930104E0E8F7E725913491C4
:102250002130304C09F049C0E6E9F7E7E491E0931A
:10226000EA03E7E9F7E7E491E0939503E8E9F7E7A4
:10227000E491E0939603E9E9F7E7859194919093CF
:10228000980380939703EBE9F7E7859194919093F6
:102290009A038093990387E08093BC03EEE9F7E704
:1022A000E491E093BB03EFE9F7E7E491E0930104E5
:1022B000E0EAF7E7859194919093AE038093AD03A4
:1022C000E2EAF7E7859194919093B0038093AF038E
:1022D000E4EAF7E7859194919093B2038093B10378
:1022E000E6EAF7E7859194912CC09CE39093EA038A
:1022F000109295038093960380E293E09093980365
:102300008093970384ED93E090939A0380939903CD
:1023100087E08093BC038093BB038CEA9DE090939D
:10232000AE038093AD038EED9DE09093B003809358
:10233000AF0384E79EE09093B2038093B1038CE3F4
:102340009FE09093B4038093B30311E01093910343
:102350006FEF70E085E00E94250988E080939B0381
:1023600089E080939C0387E080939D0386E08093BF
:102370009E0304E000939F0382E08093A00381E129
:102380008093A1030E946E0E8CE39FE09093AC03B8
:102390008093AB030093AA031093B5038BE0809363
:1023A000ED038DE08093EC0380E18093EE038EE0FB
:1023B0008093F0038FE08093EF031093E703109373
:1023C000FF03109200041093E603E5E1F3E0E491CB
:1023D000EF5FE093E303E6E1F3E0E491EF5FE09386
:1023E000E40387E193E09093FE038093FD031FB71E
:1023F000F89480917A01811127C0E2E1F5E084919F
:10240000E6E2F5E09491E82FF0E0EE0FFF1FEC58C4
:10241000FF4FA591B491EC91E92321F461E08AE0AA
:102420000E94B90861E08AE00E94E9088CB58061E9
:102430008CBD8CB580648CBD61E08DE00E94E908A4
:1024400061E08BE00E94E90880917A018F5F8093C0
:102450007A011FBF8CB58F7D8CBD8CB58C7F816060
:102460008CBD8DB581608DBD8CB58C608CBD61E0FF
:102470008091ED030E94E90861E08091EC030E94E5
:10248000E90861E08091EE030E94E9088091F00381
:1024900018161CF461E00E94E9088091EF031816F9
:1024A0001CF461E00E94E9088091F003181674F4AE
:1024B00060E00E94B9086AE070E080E090E00E946D
:1024C000C00961E08091F0030E94B9088091EC039B
:1024D000082E000C990BFC01E85FFA4FE491F0E044
:1024E000EE0FFF1FE258FF4F259134913093F40314
:1024F0002093F303FC01E45EFA4FE491E093FA03C6
:102500008091ED03082E000C990BFC01E85FFA4F57
:10251000E491F0E0EE0FFF1FE258FF4F2591349158
:102520003093F2032093F103FC01E45EFA4FE4914F
:10253000E093F9038091EF03082E000C990BFC0146
:10254000E85FFA4FE491F0E0EE0FFF1FE258FF4F13
:10255000259134913093F6032093F503FC01E45E5A
:10256000FA4FE491E093FB038091EE03082E000CF8
:10257000990BFC01E85FFA4FE491F0E0EE0FFF1FCA
:10258000E258FF4F259134913093F8032093F703DD
:10259000FC01E45EFA4FE491E093FC0381E20E94C7
:1025A000C20E84E10E94C20E8091EA0387FF03C03D
:1025B0008FE78093EA038091EA0380680E94C20E4D
:1025C00080E20E94C20E8CE00E94C20E0E94E10EC8
:1025D00081E08093BA0384E08093DE0380E790E09B
:1025E0009093C6038093C50360E080E00E94BE0F15
:1025F00061E070E083E00E9425098091B100887F4E
:1026000081608093B100F894109280001092810054
:10261000109285001092840088E191E090938900E7
:1026200080938800809181008860809381008091F0
:10263000810081608093810080916F00826080932F
:102640006F0078940E9482108091A703813019F462
:102650001092BB030BC08091AA038823C9F340E00A
:1026600068E870E086EB93E00E94980AC090AB03A4
:10267000D090AC03C094D094E12CF12C0E949B0923
:102680004B015C010E949B09A501940120953095A6
:102690004095509560957095809590950E94D21BBD
:1026A0009B01AC01C701B6010E94D21B4B015C012A
:1026B00080919203909193036C01E12CF12C0E9484
:1026C0009B09C60ED71EE81EF91EC701B601680D8C
:1026D000791D8A1D9B1D611571058105910511F0FC
:1026E0000E94261A80910104882321F086E990E057
:1026F0000E9426071092A9030E94080E68E0A62EE9
:10270000B12CCC24CA94DC2C0E94CD02882309F47D
:1027100015C5809179018111A3C08FED93E00E94CE
:10272000130C48EF51E06FEF7FEF81E991E00E94D9
:10273000211C1092FF0381E0809300048AE18093C2
:10274000E8038FE08093E9036DE171E08FED93E0A2
:102750000E94320866E271E08FED93E00E94320839
:1027600084E18093E80389E18093E90369E271E001
:102770008FED93E00E943208809178018A3018F43E
:1027800061E371E004C0843630F462E371E08FED00
:1027900093E00E9432084091780150E060E070E0E0
:1027A0002AE08FED93E00E94470866E271E08FED2A
:1027B00093E00E943208809178018823B1F09091D3
:1027C0007701891312C084E18093E80383E2809348
:1027D000E90365E371E08FED93E00E94320866E261
:1027E00071E08FED93E00E94320801E00093FF0357
:1027F000109200046091770180E090E00E94371A07
:102800001091E5030093E503409002045090030407
:102810005CE3450E511C052C000C6608770880917E
:10282000020490910304A0910404B091050484155E
:102830009505A605B70528F40E94CD028823E1F38B
:10284000EECF1093E5030E94080E809101048823C7
:1028500021F08FE391E00E9426071092A9036EC435
:102860008FED93E00E94130C61E471E08FED93E033
:102870000E9432084091790150E060E070E02AE067
:102880008FED93E00E94470883E28093E803409134
:10289000780150E060E070E02AE08FED93E00E9464
:1028A00047088CE38093E80363E471E08FED93E0E5
:1028B0000E9432084091770150E060E070E02AE029
:1028C0008FED93E00E94470810E02AE331E04CE2EC
:1028D000612F8FED93E00E94D10A185F1036A9F79F
:1028E0008091750190917601892B01F5D092740148
:1028F000C092730110927F0110927E018091A20319
:1029000081508E3F08F422C48091A40381508E3FF1
:1029100008F428C48091A30381508E3F08F431C489
:102920008091A50381508E3F08F434C44091730117
:102930005091740157FD22C020916C0130916D01BE
:102940008091700190917101820F931F97FD05C0D6
:1029500090936D0180936C0104C010926D011092F0
:102960006C0180916C0190916D018D34910534F072
:102970008CE490E090936D0180936C0160917501FF
:10298000709176016115710509F440C020916A01CA
:1029900030916B0180916E0190916F01821B930BBE
:1029A00090936F0180936E01009729F0FB01E81B63
:1029B000F90B709739F431952195310930936B01FA
:1029C00020936A0120917E0130917F01820F931F35
:1029D0008597C4F084E290E0821B930B90936F0183
:1029E00080936E0180916A0190916B019195819520
:1029F000910990936B0180936A0110927601109275
:102A0000750104C0672B21F082E006C057FD12C09B
:102A10004330510521F484E080937D010DC0809105
:102A2000020480FD09C080917D018F5F80937D014C
:102A3000843010F010927D0120917D016AE0269F84
:102A400090011124C901885F9E4F3C01FC018491D3
:102A5000A501481B5109CA0150938101409380018F
:102A6000F901E75FFE4FE49195012E1B3109309388
:102A70007F0120937E014091720180906E01820E51
:102A800050906C01580E411108C09301482D652DDE
:102A90008FED93E00E94D10A81C0F3010491319639
:102AA0004490202E312CC10107969C0153E03595AE
:102AB00027955A95E1F738872F8310E0242D30E0D1
:102AC0003C872B870150812F012E000C990B82151A
:102AD00093050CF063C0812F17FF02C087E0810FC0
:102AE000E82EE594E594E594812F877887FF03C06D
:102AF0008150886F8F5F20E830E002C035952795C0
:102B00008A95E2F73A872987912C0E2C000CFF0852
:102B100032E0E30EF11C502F511B292D092C000C23
:102B2000330B6B857C8526173707B4F56F81788565
:102B3000269FC001279F900D369F900D1124F7010D
:102B4000E80FF91FE60DF71DE491F0E029853A85BD
:102B5000E223F323EF2BF1F0442361F0242F2370C1
:102B600040FF02C0652F01C0612F41FF07C0442D07
:102B7000491905C0492D612F20E001C0492D650D7F
:102B8000480D8FED93E02D875E870E94240C2D85E4
:102B9000422F5E859394C1CF1F5F95CF80916901CD
:102BA000811118C08091670190916801892B91F47F
:102BB00000910204109103040E94C3190C591F4F85
:102BC00064E670E00E94EE1B080F191F1093680165
:102BD0000093670180916901811162C08091670152
:102BE00090916801092E000CAA0BBB0B40910204C6
:102BF000509103046091040470910504481759072B
:102C00006A077B0708F44CC086E0E9E0F1E0DE01EA
:102C1000119601900D928A95E1F70E94C31964E61E
:102C200070E00E94EE1B019621E020936901109252
:102C30006601FE01319640E021913191821B930B98
:102C400097FF03C04093660103C04F5F4330A1F775
:102C500080916C0190916D018B9754F00E94C31983
:102C60006FE070E00E94EE1B9C01265F3F4F0AC0A0
:102C70000E94C3196FE070E00E94EE1B2AE430E06E
:102C8000281B390B30936501209364018091020465
:102C90009091030488539F4F909363018093620146
:102CA00080916901882309F479C0909066010091B0
:102CB000600110916101E0906401F09065017AE09B
:102CC000979E9001112426513F4F402F6E2D8FED7E
:102CD00093E00E94D10A40917E0150917F01609162
:102CE00080017091810180916E0190916F0120911E
:102CF0006C0130916D01620F731F2A0D3B1DE216AE
:102D0000F3063CF5E5E0EE0EF11C6E157F050CF5C3
:102D1000480F591F8A0D9B1D08171907D4F40B5F24
:102D20001F4F40175107ACF440C2971608F05CC221
:102D3000809178018E5F80937801109269011092E2
:102D40006601109265011092640110926801109260
:102D500067018091620190916301092E000CAA0B1A
:102D6000BB0B4091020450910304609104047091E4
:102D70000504481759076A077B0780F0109269011C
:102D80001092660110926501109264011092680120
:102D900010926701109263011092620180915F01AD
:102DA000811118C08091590190915A01892B91F499
:102DB00000910204109103040E94C3190E5C1F4F7E
:102DC00064E670E00E94EE1B080F191F10935A0171
:102DD0000093590180915F01811129C080915901AF
:102DE00090915A01092E000CAA0BBB0B40910204D2
:102DF0005091030460910404709105044817590729
:102E00006A077B07A0F081E080935F010E94C319ED
:102E10006CE270E00E94EE1B0C9690935E01809332
:102E20005D0186E090E090935C0180935B0180916E
:102E30005F01882309F481C000915B0110915C015E
:102E40000F5F1F4F10935C0100935B010832110567
:102E50002CF410927C0110927B0109C080917B01BF
:102E600090917C01019690937C0180937B018091ED
:102E70007B0190917C01873091050CF050C0009748
:102E800069F02AE0289FF001299FF00D1124EB55ED
:102E9000FF4FE4910CE210E00E1B110980905D01E0
:102EA00090905E012AE0289F7001299FF00C112468
:102EB00097012C553F4F402F682D8FED93E00E94D6
:102EC000D10AF701EB55FF4FE49140917E015091FB
:102ED0007F01609180017091810180916E019091DC
:102EE0006F0120916C0130916D01620F731F2A0DEB
:102EF0003B1D821693060CF5F8E08F0E911C6815A9
:102F00007905DCF4480F591F8A0D9B1D0817190716
:102F1000A4F40E0F111D401751077CF483C11092C9
:102F20005F01D0925E01C0925D01D0925C01C092BF
:102F30005B0110925A011092590180915401811144
:102F400018C08091500190915101892B91F400910A
:102F50000204109103040E94C319065F1F4F68E228
:102F600070E00E94EE1B080F191F1093510100938F
:102F7000500180915401811161C080915001909164
:102F80005101092E000CAA0BBB0B40910204509179
:102F900003046091040470910504481759076A07F7
:102FA0007B0708F44BC081E08093540140E06CE95A
:102FB00070E086EB93E00E94980A80915501909111
:102FC0005601892B41F40E94C31962E070E00E940F
:102FD000EE1B029602C082E090E09093580180932D
:102FE00057010E94C31963E070E00E94EE1B8095B8
:102FF0009095880F991F880F991F8C9690934F0179
:1030000080934E010E94C31980FD07C021E030E08B
:10301000309353012093520111C043E550E0509387
:10302000530140935201809157019091580191951D
:103030008195910990935801809357018091540193
:10304000882309F467C080905201909053018091C9
:10305000570190915801880E991E909253018092C9
:10306000520160904E0170904F014FEF460D23E0EA
:10307000682D8FED93E00E947F0DE12C03E021E0AD
:10308000462D682D8FED93E00E94A20D40917E01A8
:1030900050917F01609180017091810180916E015A
:1030A00090916F0120916C0130916D01620F731F3F
:1030B0002A0D3B1D82169306A4F4E2E08E0E911CAD
:1030C0006815790574F4480F591F8A0D9B1D681601
:1030D00079063CF4F2E06F0E711C461557050CF4AE
:1030E000C3C08091550190915601092E000CAA0B86
:1030F000BB0B409102045091030460910404709151
:10310000050484179507A607B70720F41092560107
:103110001092550180915401882341F08091520111
:10312000909153018435910508F0C0C080917801D9
:1031300090917701981710F48093770180E090E0E8
:10314000892B09F4E1CA0E940000DECA10927401C2
:103150001092730181E080937201D0927101C0924C
:103160007001D2CB22E030E03093740120937301E0
:103170001092720141E050E0509371014093700150
:10318000C9CB80916E0190916F01909376018093ED
:103190007501C6CB63E070E07093740160937301B6
:1031A0001092710110927001C1CB40E065E471E0B2
:1031B00086EB93E00E94980A71E09712B6CD1092C8
:1031C0005F01D0925E01C0925D01D0925C01C0921D
:1031D0005B01809102049091030480579E4F90936D
:1031E0005A0180935901A9CD82E09812A6CD809111
:1031F000570190915801181619061CF08FEF9FEF98
:1032000002C081E090E09093580180935701809133
:1032100002049091030480579E4F9093560180932F
:1032200055018BCD86EB93E00E94CC0A8091790109
:1032300081508093790110925F01D0925E01C0921B
:103240005D01D0925C01C0925B0110925A01109214
:10325000590110925401D0925301C0925201109220
:1032600051011092500169CE86EB93E00E94CC0A86
:103270008091790181508093790110925401D0920C
:103280005301C092520110925101109250011092BC
:103290005F01D0925E01C0925D01D0925C01C0924C
:1032A0005B0110925A01109259011BCF8091780155
:1032B0008F5F8093780110925401D0925301C09295
:1032C0005201109251011092500130CF1092E2033E
:1032D0001092E10385E191E09093E0038093DF0396
:1032E00080E090E00E942F1A8093770108958F92DA
:1032F0009F92AF92BF92CF92DF92EF92FF92CF93C5
:10330000DF93EC01688179818A819B816115710568
:103310008105910521F464E279ED8BE597E02DE1DB
:1033200033EF41E050E00E94451A49015A019B01E8
:10333000AC01A7EAB1E40E94641A6B017C01ACEE17
:10334000B4EFA50194010E94721ADC01CB018C0D2F
:103350009D1DAE1DBF1DB7FF03C00197A109B04859
:1033600088839983AA83BB839F77DF91CF91FF9056
:10337000EF90DF90CF90BF90AF909F908F90089587
:103380000E947719089581E091E00E9477190895CD
:10339000A0E0B0E08093010190930201A0930301AB
:1033A000B093040108958F929F92AF92BF92CF92F3
:1033B000DF92EF92FF92CF93DF93EC0168817981E6
:1033C0008A819B81611571058105910521F464E273
:1033D00079ED8BE597E02DE133EF41E050E00E947D
:1033E000451A49015A019B01AC01A7EAB1E40E94C8
:1033F000641A6B017C01ACEEB4EFA50194010E944C
:10340000721ADC01CB018C0D9D1DAE1DBF1DB7FFD7
:1034100003C00197A109B04888839983AA83BB831D
:10342000BC01CD019F77DF91CF91FF90EF90DF90AE
:10343000CF90BF90AF909F908F9008950E94D31926
:10344000089585E091E00E94D319089560930501E5
:103450007093060180930701909308010895F999EC
:10346000FECF92BD81BDF89A992780B50895262F89
:10347000F999FECF1FBA92BD81BD20BD0FB6F89459
:10348000FA9AF99A0FBE01960895052E97FB1EF43D
:1034900000940E945C1A57FD07D00E94771A07FC1F
:1034A00003D04EF40C945C1A5095409530952195BC
:1034B0003F4F4F4F5F4F0895909580957095619560
:1034C0007F4F8F4F9F4F08950E94991AA59F900D8F
:1034D000B49F900DA49F800D911D11240895B7FFF6
:1034E0000C94641A0E94641A821B930B0895A1E243
:1034F0001A2EAA1BBB1BFD010DC0AA1FBB1FEE1F6E
:10350000FF1FA217B307E407F50720F0A21BB30BB8
:10351000E40BF50B661F771F881F991F1A9469F734
:1035200060957095809590959B01AC01BD01CF0190
:103530000895A29FB001B39FC001A39F700D811D8C
:103540001124911DB29F700D811D1124911D0895AC
:103550000E941C1B88F09F5798F0B92F9927B751EC
:10356000B0F0E1F0660F771F881F991F1AF0BA9527
:10357000C9F714C0B13091F00E94361BB1E0089534
:103580000C94361B672F782F8827B85F39F0B93F26
:10359000CCF3869577956795B395D9F73EF49095DA
:1035A0008095709561957F4F8F4F9F4F0895E89458
:1035B00009C097FB3EF490958095709561957F4F7B
:1035C0008F4F9F4F9923A9F0F92F96E9BB27939529
:1035D000F695879577956795B795F111F8CFFAF439
:1035E000BB0F11F460FF1BC06F5F7F4F8F4F9F4F6A
:1035F00016C0882311F096E911C0772321F09EE8C8
:10360000872F762F05C0662371F096E8862F70E02D
:1036100060E02AF09A95660F771F881FDAF7880F07
:103620009695879597F9089557FD9058440F551F23
:1036300059F05F3F71F04795880F97FB991F61F034
:103640009F3F79F087950895121613061406551FAB
:10365000F2CF4695F1DF08C0161617061806991F17
:10366000F1CF86957105610508940895E894BB270C
:1036700066277727CB0197F908950E94501B0C9479
:10368000C11B0E94B31B38F00E94BA1B20F0952387
:1036900011F00C94AA1B0C94B01B11240C94371B32
:1036A0000E94141B70F3959FC1F3950F50E0551FB6
:1036B000629FF001729FBB27F00DB11D639FAA2787
:1036C000F00DB11DAA1F649F6627B00DA11D661FD6
:1036D000829F2227B00DA11D621F739FB00DA11DF7
:1036E000621F839FA00D611D221F749F3327A00DB1
:1036F000611D231F849F600D211D822F762F6A2F4D
:1037000011249F5750409AF0F1F088234AF0EE0FB1
:10371000FF1FBB1F661F771F881F91505040A9F7DE
:103720009E3F510580F00C94AA1B0C94371B5F3F01
:10373000E4F3983ED4F3869577956795B795F7951A
:10374000E7959F5FC1F7FE2B880F911D9695879592
:1037500097F9089597F99F6780E870E060E0089511
:103760009FEF80EC089500240A9416161706180699
:103770000906089500240A94121613061406050675
:103780000895092E0394000C11F4882352F0BB0F06
:1037900040F4BF2B11F460FF04C06F5F7F4F8F4F69
:1037A0009F4F0895DB018F939F930E94641ABF91EE
:1037B000AF91A29F800D911DA39F900DB29F900D80
:1037C00011240895991B79E004C0991F961708F0F9
:1037D000961B881F7A95C9F78095089597FB072E49
:1037E00016F4009407D077FD09D00E94021C07FC54
:1037F00005D03EF4909581959F4F08957095619501
:103800007F4F0895AA1BBB1B51E107C0AA1FBB1F16
:10381000A617B70710F0A61BB70B881F991F5A955C
:10382000A9F780959095BC01CD010895EE0FFF1F7B
:103830000590F491E02D099481E090E0F8940C94C7
:10384000281CDC0101C06D9341505040E0F7089501
:04385000F894FFCF1A
:103854000101000000010000003200190019002CD1
:103864000000000000B30C01082D082C08594F5526
:103874002044494544000D0A0053434F52453A2021
:103884000030303000484947482053434F524521C7
:0E389400000300484920004C4F4144455200BB
:00000001FF
